:100000000C946C000C945C050C9435050C94D20493
:100010000C946F040C94FE030C9494000C949400C4
:100020000C9494000C9494000C9494000C94940000
:100030000C9494000C9494000C9494000C949400F0
:100040000C945C030C9494000C94CC030C94A603C5
:100050000C9494000C9494000C9494000C949400D0
:100060000C9494000C9494000000000025002800DB
:100070002B0000000000240027002A0000010203DA
:10008000040506070001020304050001020304053C
:1000900000000000230026002900040404040404D6
:1000A0000404020202020202030303030303010227
:1000B00004081020408001020408102001020408F6
:1000C00010200000000800020100000304070000E7
:1000D000000000000000D00511241FBECFEFD8E0C3
:1000E000DEBFCDBF11E0A0E0B1E0E0E7F1E102C08A
:1000F00005900D92A033B107D9F722E0A0E3B1E05B
:1001000001C01D92AB34B207E1F710E0CCE6D0E0BD
:1001100004C02197FE010E948B07CB36D107C9F797
:100120000E9437060C94B6080C940000AF92BF9260
:10013000CF92DF92EF92FF920F931F93CF93DF93B3
:100140006C017B018B01040F151FEB015E01AE18E2
:10015000BF08C017D10759F06991D601ED91FC9104
:100160000190F081E02DC6010995892B79F7C50131
:10017000DF91CF911F910F91FF90EF90DF90CF9083
:10018000BF90AF900895FC01538D448D252F30E032
:10019000842F90E0821B930B541710F0CF96089594
:1001A00001970895FC01918D828D981761F0A28DC1
:1001B000AE0FBF2FB11D5D968C91928D9F5F9F7387
:1001C000928F90E008958FEF9FEF0895FC01918D3D
:1001D000828D981731F0828DE80FF11D858D90E0AA
:1001E00008958FEF9FEF0895FC01918D228D892F47
:1001F00090E0805C9F4F821B91098F73992708952F
:1002000086E791E00E94F40021E0892B09F420E0C8
:10021000822F089580E090E0892B29F00E94000150
:1002200081110C9400000895FC01A48DA80FB92F32
:10023000B11DA35ABF4F2C91848D90E001968F730E
:100240009927848FA689B7892C93A089B1898C912D
:10025000837080648C93938D848D981306C002887C
:10026000F389E02D80818F7D80830895EF92FF9246
:100270000F931F93CF93DF93EC0181E0888F9B8DC9
:100280008C8D98131AC0E889F989808185FF15C083
:100290009FB7F894EE89FF896083E889F9898081A6
:1002A0008370806480839FBF81E090E0DF91CF9175
:1002B0001F910F91FF90EF900895F62E0B8D10E097
:1002C0000F5F1F4F0F731127E02E8C8D8E110CC006
:1002D0000FB607FCFACFE889F989808185FFF5CF51
:1002E000CE010E941401F1CFEB8DEC0FFD2FF11D1B
:1002F000E35AFF4FF0829FB7F8940B8FEA89FB898E
:1003000080818062CFCFCF93DF93EC01888D8823EB
:10031000B9F0AA89BB89E889F9898C9185FD03C068
:10032000808186FD0DC00FB607FCF7CF8C9185FF4D
:10033000F2CF808185FFEDCFCE010E941401E9CF7D
:10034000DF91CF910895FC01228133812F5F3F4FD0
:10035000338322830895CF92DF92EF92FF920F931F
:100360001F93CF93DF934FB7F894009172011091D0
:10037000730120917401309175014FBFDC015296D9
:100380004D915C91052E000C660B770B680179018D
:10039000C41AD50AE60AF70AB701A6014F3151057A
:1003A00061057105C4F1EC011B8B0A8BE881F981B1
:1003B0000280F381E02D09958E010A5F1F4FF12C19
:1003C000E12C811114C08C819D81E816F9061CF581
:1003D000F801819191918F01DC01ED91FC910190E7
:1003E000F081E02D0995BFEFEB1AFB0AECCF8C8171
:1003F0009D81E816F9067CF4D8018D919D918D01BF
:10040000DC01ED91FC910190F081E02D0995BFEFA9
:10041000EB1AFB0AECCFDF91CF911F910F91FF9068
:10042000EF90DF90CF900895FF920F931F93CF939B
:10043000DF93DC0115961C921E9214978AE091E0DE
:1004400011969C938E9382E191E013969C938E93E8
:10045000129751967C936E935097EB01C255DF4FE4
:10046000FE018491AB0146565F4FFA01249122238D
:10047000C9F030E0220F331FF901EE58FF4F05910C
:100480001491F901E859FF4F25913491FFB6F89482
:10049000F8019081809598239083F90190818923B8
:1004A0008083FFBE15961C921E9214978FB7F89406
:1004B00000917201109173012091740130917501C6
:1004C0008FBF53961C930E935297FB01EE0FFF1FA5
:1004D000ED5EFD4FB183A083FB01EE0FFF1FE35DD7
:1004E000FD4F80819181FE012491FA0144914230B7
:1004F000B1F530914301322B3093430130914201E9
:10050000322B3093420164587F4FFB01A49142305B
:10051000A1F5B0E0AA0FBB1FAA5CBE4F8D939C93C0
:10052000E4E9F0E0A591B4918C91809344018BE6CD
:1005300090E0909331018093300180916800816058
:1005400080936800E0913001F09131018081282B87
:100550002083DF91CF911F910F91FF900895433039
:1005600009F03FC030915201322B3093520130914B
:100570005101322B30935101C6CF4330C1F4B0E06A
:10058000AA0FBB1FAB5BBE4F8D939C93E6E9F0E0D7
:10059000A591B4918C91809353018CE690E0909357
:1005A000310180933001809168008260C9CF44306E
:1005B00049F6B0E0AA0FBB1FAC5ABE4F8D939C9377
:1005C000E8E9F0E0A591B4918C91809366018DE605
:1005D00090E09093310180933001809168008460B5
:1005E000AFCF443009F08FCF30916501322B30937B
:1005F000650130916401322B3093640184CFFC019A
:1006000001900020E9F73197AF01481B590BBC015D
:1006100086E791E00C949600CF93DF93EC018EE295
:1006200091E00E94FF02FE01EE0FFF1FED5EFD4F05
:1006300080819181DC01ED91FC910190F081E02DB0
:10064000BE01DF91CF91099490E080E00C940C03FF
:1006500081E090E00C940C0382E090E00C940C0399
:1006600083E090E00C940C0384E090E00C940C0385
:1006700085E090E00C940C0386E090E00C940C0371
:1006800087E090E00C940C0388E090E00C940C035D
:1006900089E090E00C940C038AE090E00C940C0349
:1006A0008BE090E00C940C038CE090E00C940C0335
:1006B0008DE090E00C940C031F920F920FB60F92F6
:1006C00011242F933F938F939F93AF93BF93809168
:1006D000720190917301A0917401B09175013091F4
:1006E000710123E0230F2D3758F50196A11DB11D8F
:1006F000209371018093720190937301A093740110
:10070000B093750180916D0190916E01A0916F0180
:10071000B09170010196A11DB11D80936D01909360
:100720006E01A0936F01B0937001BF91AF919F9143
:100730008F913F912F910F900FBE0F901F901895A2
:1007400026E8230F0296A11DB11DD2CF1F920F9252
:100750000FB60F9211242F933F934F935F936F9394
:100760007F938F939F93AF93BF93EF93FF9386E70E
:1007700091E00E941401FF91EF91BF91AF919F9181
:100780008F917F916F915F914F913F912F910F903A
:100790000FBE0F901F9018951F920F920FB60F92D9
:1007A00011242F938F939F93EF93FF93E0918601F2
:1007B000F09187018081E0918C01F0918D0182FDA3
:1007C0001BC0908180918F018F5F8F73209190016A
:1007D000821741F0E0918F01F0E0EA58FE4F958FCB
:1007E00080938F01FF91EF919F918F912F910F90A7
:1007F0000FBE0F901F9018958081F4CF1F920F921B
:100800000FB60F9211242F933F934F935F936F93E3
:100810007F938F939F93AF93BF93CF93EF93FF9368
:1008200099B1C09166018091650130916401292FD1
:10083000209523238923822B20916D00C927C22371
:10084000C82390936601CC23C1F1C0FF05C0E0919D
:100850005401F09155010995C1FF05C0E091560181
:10086000F09157010995C2FF05C0E0915801F09140
:1008700059010995C3FF05C0E0915A01F0915B0150
:100880000995C4FF05C0E0915C01F0915D010995F7
:10089000C5FF05C0E0915E01F0915F010995C6FFBB
:1008A00005C0E0916001F09161010995C7FF05C0A5
:1008B000E0916201F09163010995FF91EF91CF9171
:1008C000BF91AF919F918F917F916F915F914F9168
:1008D0003F912F910F900FBE0F901F9018951F9270
:1008E0000F920FB60F9211242F933F934F935F9364
:1008F0006F937F938F939F93AF93BF93CF93EF9318
:10090000FF9396B1C09153018091520130915101F2
:10091000292F209523238923822B20916C00C9271E
:10092000C223C82390935301CC2351F1C0FF05C0CB
:10093000E0914501F09146010995C1FF05C0E091A4
:100940004701F09148010995C2FF05C0E0914901B6
:10095000F0914A010995C3FF05C0E0914B01F09168
:100960004C010995C4FF05C0E0914D01F0914E0185
:100970000995C5FF05C0E0914F01F091500109951F
:10098000FF91EF91CF91BF91AF919F918F917F9107
:100990006F915F914F913F912F910F900FBE0F90EC
:1009A0001F9018951F920F920FB60F9211242F933C
:1009B0003F934F935F936F937F938F939F93AF93E7
:1009C000BF93CF93EF93FF9393B1C0914401809174
:1009D000430130914201292F209523238923822B23
:1009E00020916B00C927C223C82390934401CC23D4
:1009F00051F1C0FF05C0E0913601F0913701099532
:100A0000C1FF05C0E0913801F09139010995C2FF9D
:100A100005C0E0913A01F0913B010995C3FF05C083
:100A2000E0913C01F0913D010995C4FF05C0E091C2
:100A30003E01F0913F010995C5FF05C0E0914001DD
:100A4000F09141010995FF91EF91CF91BF91AF9145
:100A50009F918F917F916F915F914F913F912F91D6
:100A60000F900FBE0F901F9018951F920F920FB608
:100A70000F9211242F933F934F935F936F937F9324
:100A80008F939F93AF93BF93EF93FF93E0913401C4
:100A9000F09135010995FF91EF91BF91AF919F9131
:100AA0008F917F916F915F914F913F912F910F9017
:100AB0000FBE0F901F9018951F920F920FB60F92B6
:100AC00011242F933F934F935F936F937F938F9353
:100AD0009F93AF93BF93EF93FF93E0913201F09117
:100AE00033010995FF91EF91BF91AF919F918F9144
:100AF0007F916F915F914F913F912F910F900FBE1A
:100B00000F901F901895FC01808991899927FC010D
:100B1000EE53FF4F2491FC01E255FF4F3491FC014D
:100B2000E656FF4FE491EE23A1F0222339F0233063
:100B3000E9F090F4213001F1223011F1F0E0EE0FF4
:100B4000FF1FE057FF4FA591B491EC913E2381E048
:100B500009F480E0817008952730A9F02830C9F0A9
:100B6000243061F7809180008F7D03C080918000E8
:100B70008F7780938000E2CF84B58F7784BDDECFFE
:100B800084B58F7DFBCF8091B0008F778093B000CC
:100B9000D5CF8091B0008F7DF9CF02970C9483055B
:100BA000E6E7F1E01382128288EE93E0A0E0B0E085
:100BB00084839583A683B7838EE191E091838083BC
:100BC00085EC90E09587848784EC90E09787868712
:100BD00080EC90E0918B808B81EC90E0938B828B0A
:100BE00082EC90E0958B848B86EC90E0978B868BE3
:100BF000118E128E138E148EE3E1F2E084E293E004
:100C0000938F828F88E293E0958F848F8CE293E0BC
:100C1000978F868F80E393E091A380A384E393E092
:100C200093A382A388E393E095A384A38CE393E04A
:100C300097A386A380E493E091A780A784E493E040
:100C400093A782A788E493E095A784A78CE493E018
:100C500097A786A780E593E091AB80AB84E593E00E
:100C600093AB82AB88E593E095AB84AB0895CF93CB
:100C7000DF93CDB7DEB7A1970FB6F894DEBF0FBEF6
:100C8000CDBF789484B5826084BD84B5816084BD15
:100C900085B5826085BD85B5816085BD80916E001A
:100CA000816080936E00109281008091810082604B
:100CB0008093810080918100816080938100809188
:100CC00080008160809380008091B1008460809377
:100CD000B1008091B00081608093B00080917A0073
:100CE000846080937A0080917A00826080937A0099
:100CF00080917A00816080937A0080917A00806888
:100D000080937A001092C100E0918601F0918701F2
:100D100082E08083E0918201F09183011082E09172
:100D20008401F09185018FEC808310928E01E09117
:100D30008A01F0918B0186E08083E0918801F09137
:100D40008901808180618083E0918801F09189012F
:100D5000808188608083E0918801F09189018081A1
:100D600080688083E0918801F091890180818F7D86
:100D7000808384E190E00E9491077C0168E070E04C
:100D80000E941402F0926A01E092690184E190E00D
:100D90000E9491078C016DE070E00E941402109394
:100DA00068010093670184E090E00E94910728E1C8
:100DB00031E0FC01318320831382128290936C0115
:100DC00080936B01F701248135812530310574F45E
:100DD000A9014F5F5F4F558344832D5F3F4F220F23
:100DE000331FE20EF31EF70191838083F801248103
:100DF00035812530310574F4A9014F5F5F4F55836C
:100E000044832D5F3F4F220F331F020F131FF80142
:100E1000918380838AE0882E912CA12CB12C00E054
:100E200010E0E0916B01F0916C01F894C280D380E6
:100E300078940D2C000CEE08FF08F7FE34C06DE22C
:100E400086E791E00E94360122273327A9012C1959
:100E50003D094E095F0919A2CE0181967C01CA01A4
:100E6000B901A50194010E946907605DF7016293D1
:100E70007F01211531054105510589F7E114F10480
:100E800019F0C7010E94FF028CE291E00E94FF026C
:100E90000115110531F20E940001882309F4C1CF28
:100EA0000E940000BECFA701960119A2CE01819633
:100EB0007C01CA01B901A50194010E946907605D26
:100EC000F70162937F01211531054105510589F72D
:100ED000D5CFA1E21A2EAA1BBB1BFD010DC0AA1F74
:100EE000BB1FEE1FFF1FA217B307E407F50720F093
:100EF000A21BB30BE40BF50B661F771F881F991F0E
:100F00001A9469F760957095809590959B01AC0156
:100F1000BD01CF010895EE0FFF1F0590F491E02D64
:100F200009940F931F93CF93DF938230910510F4B0
:100F300082E090E0E0914902F0914A0230E020E046
:100F4000B0E0A0E0309799F42115310509F44AC0CA
:100F5000281B390B24303105D8F58A819B81611516
:100F6000710589F1FB0193838283FE0111C04081E9
:100F700051810281138148175907E0F0481759073A
:100F800099F4109761F012960C93129713961C9394
:100F90003296CF01DF91CF911F910F910895009369
:100FA000490210934A02F4CF2115310551F042173E
:100FB000530738F0A901DB019A01BD01DF01F801F7
:100FC000C1CFEF01F9CF90934A0280934902CDCF70
:100FD000FE01E20FF31F819391932250310939836F
:100FE0002883D7CF2091470230914802232B41F428
:100FF000209102013091030130934802209347026F
:1010000020910001309101012115310541F42DB7E6
:101010003EB74091040150910501241B350BE0912E
:101020004702F0914802E217F307A0F42E1B3F0B92
:101030002817390778F0AC014E5F5F4F241735074A
:1010400048F04E0F5F1F5093480240934702819330
:1010500091939FCFF0E0E0E09CCFCF93DF93009798
:10106000E9F0FC01329713821282A0914902B091FB
:101070004A02ED0130E020E01097A1F42081318197
:10108000820F931F20914702309148022817390799
:1010900009F061C0F0934802E0934702DF91CF91DD
:1010A0000895EA01CE17DF07E8F54A815B819E01CA
:1010B00041155105B1F7E901FB83EA834991599143
:1010C000C40FD51FEC17FD0761F480819181029652
:1010D000840F951FE90199838883828193819B8383
:1010E0008A83F0E0E0E012968D919C91139700972F
:1010F000B9F52D913C911197CD010296820F931F66
:1011000020914702309148022817390739F6309765
:1011100051F510924A0210924902B0934802A093EE
:101120004702BCCFD383C28340815181840F951F76
:10113000C817D90761F44E5F5F4F88819981480FC6
:10114000591F518340838A819B8193838283211518
:10115000310509F0B0CFF0934A02E09349029ECFE7
:10116000FD01DC01C0CF13821282D7CFF894FFCFEC
:1011700000004B02800000000000AB018305FEFF71
:101180000000CD0500000000A301000000003601B2
:101190009600C3008301F400D200E6000D0A0000AF
:00000001FF
