:100000000C945D000C9485000C9485000C94850084
:100010000C9485000C9485000C9485000C9485004C
:100020000C9485000C9485000C9485000C94E703D7
:100030000C9485000C9485000C9485000C9485002C
:100040000C9445030C9485000C94B5030C948F0319
:100050000C9485000C9485000C9485000C9485000C
:100060000C9485000C9485000000000024002700FB
:100070002A0000000000250028002B0004040404CE
:100080000404040402020202020203030303030342
:10009000010204081020408001020408102001021F
:1000A00004081020000000080002010000030407FB
:1000B0000000000000000000890511241FBECFEFE2
:1000C000D8E0DEBFCDBF11E0A0E0B1E0E4EAFEE0A1
:1000D00002C005900D92A232B107D9F721E0A2E249
:1000E000B1E001C01D92A63FB207E1F710E0CDE5F7
:1000F000D0E004C02197FE010E942506CC35D1072F
:10010000C9F70E94A3040C9450070C94000090E0DF
:10011000FC01EC55FF4F2491FC01E057FF4F349157
:10012000FC01E458FF4FE491EE23C9F0222339F09B
:10013000233001F1A8F4213019F1223029F1F0E047
:10014000EE0FFF1FEE58FF4FA591B4918FB7F894B3
:10015000EC91611126C030953E233C938FBF0895EA
:100160002730A9F02830C9F0243049F78091800069
:100170008F7D03C0809180008F7780938000DFCFD8
:1001800084B58F7784BDDBCF84B58F7DFBCF809125
:10019000B0008F778093B000D2CF8091B0008F7D78
:1001A000F9CF3E2BDACF3FB7F8948091EE019091D2
:1001B000EF01A091F001B091F10126B5A89B05C017
:1001C0002F3F19F00196A11DB11D3FBFBA2FA92FD6
:1001D000982F8827BC01CD01620F711D811D911DD3
:1001E00042E0660F771F881F991F4A95D1F708953F
:1001F0008F929F92AF92BF92CF92DF92EF92FF9237
:100200004B015C010E94D3006B017C010E94D30072
:100210006C197D098E099F09683E7340810591051F
:10022000A8F321E0821A9108A108B10888EEC80E4F
:1002300083E0D81EE11CF11C81149104A104B104D7
:1002400029F7FF90EF90DF90CF90BF90AF909F90F5
:100250008F900895AF92BF92CF92DF92EF92FF926C
:100260000F931F93CF93DF936C017B018B01040FDE
:10027000151FEB015E01AE18BF08C017D10759F07A
:100280006991D601ED91FC910190F081E02DC601BC
:100290000995892B79F7C501DF91CF911F910F91B6
:1002A000FF90EF90DF90CF90BF90AF900895FC014A
:1002B000538D448D252F30E0842F90E0821B930BCB
:1002C000541710F0CF96089501970895FC01918D71
:1002D000828D981761F0A28DAE0FBF2FB11D5D9674
:1002E0008C91928D9F5F9F73928F90E008958FEF16
:1002F0009FEF0895FC01918D828D981731F0828DCA
:10030000E80FF11D858D90E008958FEF9FEF089520
:10031000FC01918D228D892F90E0805C9F4F821B84
:1003200091098F739927089588E491E00E948801CC
:1003300021E0892B09F420E0822F089580E090E0ED
:10034000892B29F00E94940181110C9400000895DA
:10035000FC01A48DA80FB92FB11DA35ABF4F2C913A
:10036000848D90E001968F739927848FA689B78931
:100370002C93A089B1898C91837080648C93938D28
:10038000848D981306C00288F389E02D80818F7DCB
:1003900080830895EF92FF920F931F93CF93DF9383
:1003A000EC0181E0888F9B8D8C8D98131AC0E889B1
:1003B000F989808185FF15C09FB7F894EE89FF8980
:1003C0006083E889F98980818370806480839FBF1E
:1003D00081E090E0DF91CF911F910F91FF90EF901E
:1003E0000895F62E0B8D10E00F5F1F4F0F7311272E
:1003F000E02E8C8D8E110CC00FB607FCFACFE88969
:10040000F989808185FFF5CFCE010E94A801F1CF47
:10041000EB8DEC0FFD2FF11DE35AFF4FF0829FB7DC
:10042000F8940B8FEA89FB8980818062CFCFCF93CC
:10043000DF93EC01888D8823B9F0AA89BB89E8890C
:10044000F9898C9185FD03C0808186FD0DC00FB6B2
:1004500007FCF7CF8C9185FFF2CF808185FFEDCF30
:10046000CE010E94A801E9CFDF91CF910895DC0170
:100470001496EC918E2F90E0FC01EE0FFF1FE80F19
:10048000F91FED5DFE4F80818F7B80830895CF92B1
:10049000DF92EF92FF92CF93DF93EC01603282E024
:1004A0007807D4F58D81B8E8CB2ED12CC81AD108A5
:1004B00087FDD394CC0CDD1CCC0CDD1C0D2C000C6A
:1004C000EE08FF088E8128E532E0281B310987FD00
:1004D0003395220F331F220F331F032E000C440BC2
:1004E000550B2C193D094E095F09DB01653B710570
:1004F00014F0A4EBB0E0B7FF02C0B0E0A0E00E94AF
:10050000E00524EB30E040E050E00E94B605C20E6A
:10051000D31EE41EF51EB601EC81EC3070F52D8182
:1005200088E890E0821B910927FD9395880F991F19
:10053000880F991F681779077CF02E8188E592E073
:10054000821B910927FD9395880F991F880F991F8A
:10055000681779070CF4CB010297880F991F4FB7E2
:10056000F8942E2F30E0F901EE0FFF1FE20FF31F7A
:10057000ED5DFE4F928381834FBFDF91CF91FF905E
:10058000EF90DF90CF900895CF93DF93DC01149626
:100590008C9114978C3008F075C012962D913C9177
:1005A0001397C9019927FC01E057FF4F44918458E4
:1005B0009F4FFC018491882399F090E0880F991F48
:1005C000FC01E859FF4FC591D491FC01EE58FF4F53
:1005D000859194918FB7F894E881E42BE8838FBFDD
:1005E00014968C911497482F50E0FA01EE0FFF1FDC
:1005F000E40FF51FED5DFE4F922F9F732081207C4D
:10060000292B208315961C92159716961C921697E7
:100610002CE0622F0E941906829FB001112430E065
:1006200020E0AB01420F531FFA01EE0FFF1FE40F52
:10063000F51FED5DFE4F908196FD16C02F5F3F4F79
:100640002C30310571F781110FC01092800082E0CB
:10065000809381001092850010928400B19A80915D
:100660006F00826080936F001496EC918E2F90E063
:10067000FC01EE0FFF1FE80FF91FED5DFE4F8081BB
:1006800080648083DF91CF9108951F920F920FB6FF
:100690000F9211242F933F938F939F93AF93BF9308
:1006A0008091EA019091EB01A091EC01B091ED01F4
:1006B0003091E90123E0230F2D3758F50196A11D54
:1006C000B11D2093E9018093EA019093EB01A0937F
:1006D000EC01B093ED018091EE019091EF01A091BA
:1006E000F001B091F1010196A11DB11D8093EE01C1
:1006F0009093EF01A093F001B093F101BF91AF91FE
:100700009F918F913F912F910F900FBE0F901F904F
:10071000189526E8230F0296A11DB11DD2CF1F9276
:100720000F920FB60F9211242F933F934F935F9325
:100730006F937F938F939F93AF93BF93EF93FF93A9
:1007400088E491E00E94A801FF91EF91BF91AF91E1
:100750009F918F917F916F915F914F913F912F91D9
:100760000F900FBE0F901F9018951F920F920FB60B
:100770000F9211242F938F939F93EF93FF93E09108
:100780005801F09159018081E0915E01F0915F0183
:1007900082FD1BC09081809161018F5F8F732091DA
:1007A0006201821741F0E0916101F0E0E85BFE4FE9
:1007B000958F80936101FF91EF919F918F912F9180
:1007C0000F900FBE0F901F9018958081F4CF1F924D
:1007D0000F920FB60F9211242F933F934F935F9375
:1007E0006F937F938F939F93AF93BF93CF93DF9339
:1007F000EF93FF9380912201C0914701D0E087FFE2
:1008000024C01092850010928400809122018F5F95
:100810008093220180912201082E000C990B8C17E5
:100820009D0724F4809122018C30C4F180918400D2
:1008300090918500049680349C4908F47AC0809198
:10084000840090918500049676C080912201082E44
:10085000000C990B8C179D07C4F6E09122018E2F96
:10086000EE0F990BFC01EE0FFF1FE80FF91FED5D76
:10087000FE4F808186FFC9CFE09122018E2FEE0FBF
:10088000990BFC01EE0FFF1FE80FF91FED5DFE4F06
:10089000808160E08F730E948700B7CF2091840031
:1008A00030918500E09122018E2FEE0F990BFC0113
:1008B000EE0FFF1FE80FF91FED5DFE4F8181928162
:1008C000820F931F9093890080938800E09122010A
:1008D0008E2FEE0F990BFC01EE0FFF1FE80FF91F93
:1008E000ED5DFE4F808186FF11C0E09122018E2FC9
:1008F000EE0F990BFC01EE0FFF1FE80FF91FED5DE6
:10090000FE4F808161E08F730E948700FF91EF911D
:10091000DF91CF91BF91AF919F918F917F916F9117
:100920005F914F913F912F910F900FBE0F901F90AD
:10093000189580E49CE990938900809388008FEF5C
:1009400080932201E3CF789484B5826084BD84B51E
:10095000816084BD85B5826085BD85B5816085BDBA
:1009600080916E00816080936E0010928100809172
:1009700081008260809381008091810081608093FA
:100980008100809180008160809380008091B1001F
:1009900084608093B1008091B00081608093B0004A
:1009A00080917A00846080937A0080917A008260DE
:1009B00080937A0080917A00816080937A008091A0
:1009C0007A00806880937A001092C100E09158010B
:1009D000F091590182E08083E0915401F09155013A
:1009E0001082E0915601F09157018FEC80831092B4
:1009F0006001E0915C01F0915D0186E08083E0910F
:100A00005A01F0915B01808180618083E0915A01FD
:100A1000F0915B01808188608083E0915A01F091C0
:100A20005B01808180688083E0915A01F0915B01D5
:100A300080818F7D808387E090E00E942B06FC01FF
:100A40008CE191E091838083209147012C3008F064
:100A50005DC081E0820F80934701248330E0D9019B
:100A6000AA0FBB1FA20FB31FAD5DBE4F88EB9BE06B
:100A700012969C938E93119789E090E093838283E2
:100A8000F093E801E093E7018AE590E09093E601B6
:100A90008093E501C0E0D0E08091E7019091E8010A
:100AA000DC01ED91FC910190F081E02D09958091A0
:100AB000E7019091E8016091E5017091E601DC01A8
:100AC000ED91FC910280F381E02D099565E070E0E5
:100AD00080E090E00E94F8008091E7019091E801A9
:100AE000DC01ED91FC910480F581E02D099568EE23
:100AF00073E080E090E00E94F800209769F20E9485
:100B00009401882349F20E940000C6CF8FEF8483AE
:100B1000B3CFE8E4F1E01382128288EE93E0A0E024
:100B2000B0E084839583A683B7838AE091E09183C4
:100B3000808385EC90E09587848784EC90E09787AC
:100B4000868780EC90E0918B808B81EC90E0938B9A
:100B5000828B82EC90E0958B848B86EC90E0978B77
:100B6000868B118E128E138E148E0895052E97FB90
:100B70001EF400940E94CD0557FD07D00E94E805A1
:100B800007FC03D04EF40C94CD055095409530955C
:100B900021953F4F4F4F5F4F0895909580957095E9
:100BA00061957F4F8F4F9F4F08950E940A06A59F22
:100BB000900DB49F900DA49F800D911D1124089558
:100BC000B7FF0C94D5050E94D505821B930B0895A1
:100BD000A1E21A2EAA1BBB1BFD010DC0AA1FBB1F41
:100BE000EE1FFF1FA217B307E407F50720F0A21BB3
:100BF000B30BE40BF50B661F771F881F991F1A9420
:100C000069F760957095809590959B01AC01BD0149
:100C1000CF010895A29FB001B39FC001A39F700DA3
:100C2000811D1124911DB29F700D811D1124911DF4
:100C30000895991B79E004C0991F961708F0961B38
:100C4000881F7A95C9F780950895EE0FFF1F0590CC
:100C5000F491E02D09940F931F93CF93DF9382308B
:100C6000910510F482E090E0E091F401F091F5013B
:100C700030E020E0B0E0A0E0309799F42115310594
:100C800009F44AC0281B390B24303105D8F58A8174
:100C90009B816115710589F1FB0193838283FE01BC
:100CA00011C0408151810281138148175907E0F03A
:100CB0004817590799F4109761F012960C93129700
:100CC00013961C933296CF01DF91CF911F910F9114
:100CD00008950093F4011093F501F4CF2115310527
:100CE00051F04217530738F0A901DB019A01BD0109
:100CF000DF01F801C1CFEF01F9CF9093F5018093A7
:100D0000F401CDCFFE01E20FF31F819391932250A6
:100D1000310939832883D7CF2091F2013091F30133
:100D2000232B41F420910201309103013093F30110
:100D30002093F2012091000130910101211531052C
:100D400041F42DB73EB74091040150910501241B99
:100D5000350BE091F201F091F301E217F307A0F4F3
:100D60002E1B3F0B2817390778F0AC014E5F5F4F01
:100D70002417350748F04E0F5F1F5093F30140933F
:100D8000F201819391939FCFF0E0E0E09CCFCF936D
:100D9000DF930097E9F0FC01329713821282A09151
:100DA000F401B091F501ED0130E020E01097A1F4DD
:100DB00020813181820F931F2091F2013091F30144
:100DC0002817390709F061C0F093F301E093F201AD
:100DD000DF91CF910895EA01CE17DF07E8F54A8148
:100DE0005B819E0141155105B1F7E901FB83EA835F
:100DF00049915991C40FD51FEC17FD0761F480810B
:100E000091810296840F951FE901998388838281DD
:100E100093819B838A83F0E0E0E012968D919C9110
:100E200013970097B9F52D913C911197CD0102963A
:100E3000820F931F2091F2013091F3012817390797
:100E400039F6309751F51092F5011092F401B093F4
:100E5000F301A093F201BCCFD383C28340815181BF
:100E6000840F951FC817D90761F44E5F5F4F8881C3
:100E70009981480F591F518340838A819B819383B5
:100E800082832115310509F0B0CFF093F501E0938D
:100E9000F4019ECFFD01DC01C0CF13821282D7CFB7
:040EA000F894FFCFF4
:100EA4000000F601800000000000CA012A01570179
:100EB4001702880166017A0100000000C40247029B
:020EC4003702F3
:00000001FF
