:100000000C9435000C945D000C945D000C945D0024
:100010000C945D000C945D000C945D000C945D00EC
:100020000C945D000C945D000C945D000C946302D4
:100030000C945D000C945D000C945D000C945D00CC
:100040000C94C1010C945D000C9431020C940B02D1
:100050000C945D000C945D000C945D000C945D00AC
:100060000C945D000C945D002A0411241FBECFEF98
:10007000D8E0DEBFCDBF21E0A2E4B1E001C01D9217
:10008000AD3EB207E1F711E0A0E0B1E0E4E7FDE04A
:1000900002C005900D92A234B107D9F710E0C5E374
:1000A000D0E004C02197FE010E94C004C433D107F0
:1000B000C9F70E9472020C94B8060C9400003FB776
:1000C000F8948091480190914901A0914A01B09122
:1000D0004B0126B5A89B05C02F3F19F00196A11D25
:1000E000B11D3FBFBA2FA92F982F8827BC01CD0182
:1000F000620F711D811D911D42E0660F771F881FE1
:10010000991F4A95D1F70895AF92BF92CF92DF928F
:10011000EF92FF920F931F93CF93DF936C017B01BC
:100120008B01040F151FEB015E01AE18BF08C0174D
:10013000D10759F06991D601ED91FC910190F081C0
:10014000E02DC6010995892B79F7C501DF91CF9183
:100150001F910F91FF90EF90DF90CF90BF90AF90E5
:100160000895FC01538D448D252F30E0842F90E0BD
:10017000821B930B541710F0CF96089501970895A2
:10018000FC01918D828D981761F0A28DAE0FBF2F6B
:10019000B11D5D968C91928D9F5F9F73928F90E0C1
:1001A00008958FEF9FEF0895FC01918D828D981730
:1001B00031F0828DE80FF11D858D90E008958FEF6D
:1001C0009FEF0895FC01918D228D892F90E0805C36
:1001D0009F4F821B91098F73992708958CE491E0BA
:1001E0000E94E20021E0892B09F420E0822F08958B
:1001F00080E090E0892B29F00E94EE0081110C94A0
:1002000000000895FC01A48DA80FB92FB11DA35AB9
:10021000BF4F2C91848D90E001968F739927848F26
:10022000A689B7892C93A089B1898C918370806449
:100230008C93938D848D981306C00288F389E02DEA
:1002400080818F7D80830895EF92FF920F931F939B
:10025000CF93DF93EC0181E0888F9B8D8C8D981379
:100260001AC0E889F989808185FF15C09FB7F89485
:10027000EE89FF896083E889F989808183708064D1
:1002800080839FBF81E090E0DF91CF911F910F911C
:10029000FF90EF900895F62E0B8D10E00F5F1F4F2B
:1002A0000F731127E02E8C8D8E110CC00FB607FC3A
:1002B000FACFE889F989808185FFF5CFCE010E94C8
:1002C0000201F1CFEB8DEC0FFD2FF11DE35AFF4F33
:1002D000F0829FB7F8940B8FEA89FB898081806256
:1002E000CFCFCF93DF93EC01888D8823B9F0AA8913
:1002F000BB89E889F9898C9185FD03C0808186FDE1
:100300000DC00FB607FCF7CF8C9185FFF2CF80812F
:1003100085FFEDCFCE010E940201E9CFDF91CF91A1
:10032000089542E050E068E171E08CE491E00C94C3
:1003300084000F931F93CF93DF93EC018881998101
:10034000009759F02A813B812617370730F081E06A
:10035000DF91CF911F910F9108958B016F5F7F4FB8
:100360000E94EB05009759F0998388831B830A83C9
:100370002C813D81232B59F7FC011082E8CF80E0CE
:10038000E7CF1F920F920FB60F9211242F933F9336
:100390008F939F93AF93BF938091440190914501B8
:1003A000A0914601B09147013091430123E0230F12
:1003B0002D3758F50196A11DB11D2093430180935F
:1003C000440190934501A0934601B0934701809169
:1003D000480190914901A0914A01B0914B010196C9
:1003E000A11DB11D8093480190934901A0934A013A
:1003F000B0934B01BF91AF919F918F913F912F91FE
:100400000F900FBE0F901F90189526E8230F0296AD
:10041000A11DB11DD2CF1F920F920FB60F921124C2
:100420002F933F934F935F936F937F938F939F93FC
:10043000AF93BF93EF93FF938CE491E00E9402018E
:10044000FF91EF91BF91AF919F918F917F916F91AC
:100450005F914F913F912F910F900FBE0F901F9082
:1004600018951F920F920FB60F9211242F938F930E
:100470009F93EF93FF93E0915C01F0915D01808188
:10048000E0916201F091630182FD1BC09081809137
:1004900065018F5F8F7320916601821741F0E091B3
:1004A0006501F0E0E45BFE4F958F80936501FF915D
:1004B000EF919F918F912F910F900FBE0F901F90F2
:1004C00018958081F4CF1F920F920FB60F921124CE
:1004D0008F9381E0809342018F910F900FBE0F9018
:1004E0001F901895CF93DF93CDB7DEB7A7970FB6C0
:1004F000F894DEBF0FBECDBF789484B5826084BD12
:1005000084B5816084BD85B5826085BD85B5816017
:1005100085BD80916E00816080936E001092810095
:100520008091810082608093810080918100816050
:100530008093810080918000816080938000809111
:10054000B10084608093B1008091B000816080939D
:10055000B00080917A00846080937A0080917A0064
:10056000826080937A0080917A00816080937A0023
:1005700080917A00806880937A001092C100E091A7
:100580005C01F0915D0182E08083E0915801F0917F
:1005900059011082E0915A01F0915B018FEC808348
:1005A00010926401E0916001F091610186E0808326
:1005B000E0915E01F0915F01808180618083E09134
:1005C0005E01F0915F01808188608083E0915E012F
:1005D000F0915F01808180688083E0915E01F091FD
:1005E0005F0180818F7D808310924201F894109288
:1005F00080001092810010928500109284008FEF8D
:100600009FEF90938900809388008091810088609B
:10061000809381008091810085608093810080912A
:100620006F00826080936F0078948E010F5F1F4F80
:1006300090E0C92E90E0D92E4DE150E06BE171E0E1
:100640008CE491E00E9484000E9491018CE491E08E
:100650000E9471010E945F004B015C0188EE482EF0
:1006600083E0582E612C712C0E945F006819790973
:100670008A099B09683E734081059105A8F321E032
:10068000421A51086108710888EE880E83E0981EAE
:10069000A11CB11C411451046104710429F783B7F2
:1006A000817F83BF83B7816083BF80916400816055
:1006B00080936400809164008460809364008091E2
:1006C0006400806280936400809164008064809301
:1006D00064008091640080688093640083B78160C7
:1006E00083BF889583B78E7F83BF83B78E7F83BF99
:1006F000809164008071809364002FB7F8946091BA
:1007000044017091450180914601909147012FBFAE
:100710001BA21AA21DA21CA21FA21EA22AE0A801AF
:100720000E945704F80101900020E9F731977F01FA
:10073000E01AF10AB701CE0182960E9499012AA11E
:100740003BA1811169C02115310519F0C9010E9431
:1007500062051BA21AA21FA21EA21DA21CA21A821F
:1007600019821C821B821E821D8268E070E0C80113
:100770000E94990129813A81811155C021153105C5
:1007800019F0C9010E9462051A8219821E821D8217
:100790001C821B82AAA0BBA0A114B10409F44DC005
:1007A000EEA0FFA0E114F104A9F08D819E81E80E76
:1007B000F91EB701C8010E9499018823F1F129812E
:1007C0003A818D819E81B501820F931F0E94B106EF
:1007D000FE82ED824D815E8169817A818CE491E0B7
:1007E0000E9484000E94910189819A81009711F0F2
:1007F0000E9462058AA19BA1009711F00E946205E8
:10080000C114D10409F418CF0E94EE00882309F422
:1008100013CF0E94000010CFFFA2EEA2B801C901C1
:100820000E94B1069CCF88E090E09E838D8369E3AF
:1008300071E0C9010E94B106ADCF89819A8100970C
:1008400011F00E9462051A8219821E821D821C828A
:100850001B82C0CFECE4F1E01382128288EE93E0B9
:10086000A0E0B0E084839583A683B7838AE091E01B
:100870009183808385EC90E09587848784EC90E079
:100880009787868780EC90E0918B808B81EC90E05D
:10089000938B828B82EC90E0958B848B86EC90E03E
:1008A000978B868B118E128E138E148E0895BB2714
:1008B000FA01A62F6217710581059105330B30FBF4
:1008C00066F0AA27660F771F881F991FAA1FA21715
:1008D00010F0A21B63953850A9F7A05DAA3308F069
:1008E000A95DA19336F7B111B1931082CA010C949E
:1008F0007904DC01FC01672F71917723E1F73297CE
:1009000004C07C916D9370836291AE17BF07C8F3EA
:1009100008952F923F924F925F926F927F928F92A3
:100920009F92AF92BF92CF92DF92EF92FF920F937E
:100930001F93CF93DF93CDB7DEB7CA1BDB0B0FB688
:10094000F894DEBF0FBECDBF09942A883988488845
:100950005F846E847D848C849B84AA84B984C884DB
:10096000DF80EE80FD800C811B81AA81B981CE0FD2
:10097000D11D0FB6F894DEBF0FBECDBFED010895B7
:10098000EE0FFF1F0590F491E02D09940F931F9334
:10099000CF93DF938230910510F482E090E0E091F4
:1009A000EB01F091EC0130E020E0B0E0A0E0309706
:1009B00099F42115310509F44AC0281B390B24305C
:1009C0003105D8F58A819B816115710589F1FB019B
:1009D00093838283FE0111C0408151810281138182
:1009E00048175907E0F04817590799F4109761F034
:1009F00012960C93129713961C933296CF01DF91A7
:100A0000CF911F910F9108950093EB011093EC018A
:100A1000F4CF2115310551F04217530738F0A901E1
:100A2000DB019A01BD01DF01F801C1CFEF01F9CF70
:100A30009093EC018093EB01CDCFFE01E20FF31F09
:100A4000819391932250310939832883D7CF209104
:100A5000E9013091EA01232B41F420910201309108
:100A600003013093EA012093E901209100013091C4
:100A700001012115310541F42DB73EB74091040124
:100A800050910501241B350BE091E901F091EA0139
:100A9000E217F307A0F42E1B3F0B2817390778F055
:100AA000AC014E5F5F4F2417350748F04E0F5F1FB4
:100AB0005093EA014093E901819391939FCFF0E035
:100AC000E0E09CCFCF93DF930097E9F0FC013297F1
:100AD00013821282A091EB01B091EC01ED0130E0A4
:100AE00020E01097A1F420813181820F931F209183
:100AF000E9013091EA012817390709F061C0F09344
:100B0000EA01E093E901DF91CF910895EA01CE1760
:100B1000DF07E8F54A815B819E0141155105B1F778
:100B2000E901FB83EA8349915991C40FD51FEC1762
:100B3000FD0761F4808191810296840F951FE90180
:100B400099838883828193819B838A83F0E0E0E0AC
:100B500012968D919C9113970097B9F52D913C9128
:100B60001197CD010296820F931F2091E9013091D8
:100B7000EA012817390739F6309751F51092EC0140
:100B80001092EB01B093EA01A093E901BCCFD383AB
:100B9000C28340815181840F951FC817D90761F422
:100BA0004E5F5F4F88819981480F591F5183408361
:100BB0008A819B81938382832115310509F0B0CF0F
:100BC000F093EC01E093EB019ECFFD01DC01C0CF7F
:100BD00013821282D7CFB0E0A0E0E1EFF5E00C94F1
:100BE0008B048C01009751F4CB010E94C6048C0148
:100BF000C801CDB7DEB7E0E10C94A704FC01E60F15
:100C0000F71F9C0122503109E217F30708F49DC039
:100C1000D901CD91DC911197C617D70798F0C5304F
:100C2000D10530F3CE0104978617970708F3C61B4A
:100C3000D70B2297C193D1936D937C93CF010E94E0
:100C40006205D6CF5B01AC1ABD0A4C018C0E9D1E0D
:100C5000A091EB01B091EC01512C412CF12CE12C35
:100C6000109731F58091E9019091EA018815990575
:100C700009F05CC04616570608F058C08091000184
:100C800090910101009741F48DB79EB74091040106
:100C900050910501841B950BE817F90708F055C022
:100CA000F093EA01E093E901F90171836083A0CF39
:100CB0008D919C91119712966C90129713967C903F
:100CC0001397A815B90559F56C0142E0C40ED11C63
:100CD000CA14DB0420F1AC014A195B09DA0112964F
:100CE000159780F06282738251834083D9016D939E
:100CF0007C93E114F10471F0D7011396FC93EE9309
:100D0000129776CF22968C0F9D1FF90191838083D5
:100D1000F301EFCFF093EC01E093EB0169CF4816BC
:100D2000590608F42C017D01D3019ACFCB010E9412
:100D3000C6047C01009749F0AE01B8010E94A806E4
:100D4000C8010E946205870153CF10E000E050CF38
:100D5000FB01DC0102C001900D9241505040D8F7D8
:100D60000895FB01DC0101900D920020E1F7089548
:040D7000F894FFCF25
:100D74000000ED0180000000000024018400B100A7
:100D84007101E200C000D4000D0A00474F494E47EC
:100D940020494E20534C454550204D4F4445204951
:100DA4004E203173202E2E2E00574F4B4520555088
:020DB40020001D
:00000001FF
