:100000000C9462000C948A000C948A000C948A0070
:100010000C948A000C948A000C948A000C948A0038
:100020000C948A000C948A000C948A000C948A0028
:100030000C948A000C948A000C948A000C948A0018
:100040000C9412020C948A000C9482020C945C02B0
:100050000C948A000C948A000C948A000C948A00F8
:100060000C948A000C948A000000000024002700F1
:100070002A000000000023002600290000000000E4
:10008000250028002B0004040404040404040202D4
:100090000202020203030303030301020408102007
:1000A0004080010204081020010204081020000012
:1000B0000008000201000003040700000000000027
:1000C0000000FB0311241FBECFEFD8E0DEBFCDBF81
:1000D00011E0A0E0B1E0E0E6F8E002C005900D928A
:1000E000A631B107D9F721E0A6E1B1E001C01D9228
:1000F000AE3BB207E1F710E0C2E6D0E004C02197C2
:10010000FE010E942804C136D107C9F70E94B4023B
:100110000C942E040C940000833081F028F481307C
:1001200099F08230A9F008958730A9F08830C9F09D
:100130008430B1F4809180008F7D03C08091800075
:100140008F7780938000089584B58F7784BD08955C
:1001500084B58F7DFBCF8091B0008F778093B00006
:1001600008958091B0008F7DF9CF1F93CF93DF93D7
:10017000EBEBF0E09491E7EAF0E0D491E3E9F0E012
:10018000C491CC23B9F0182F992319F0892F0E941C
:100190008C00EC2FF0E0EE0FFF1FE458FF4FA5910D
:1001A000B4918FB7F894EC91111108C0D095DE236B
:1001B000DC938FBFDF91CF911F910895DE2BF8CF95
:1001C0003FB7F8948091BA019091BB01A091BC0116
:1001D000B091BD0126B5A89B05C02F3F19F001962F
:1001E000A11DB11D3FBFBA2FA92F982F8827BC0191
:1001F000CD01620F711D811D911D42E0660F771FB9
:10020000881F991F4A95D1F70895AF92BF92CF9258
:10021000DF92EF92FF920F931F93CF93DF936C01C6
:100220007B018B01040F151FEB015E01AE18BF08A7
:10023000C017D10759F06991D601ED91FC91019059
:10024000F081E02DC6010995892B79F7C501DF9171
:10025000CF911F910F91FF90EF90DF90CF90BF90C3
:10026000AF900895FC01538D448D252F30E0842FED
:1002700090E0821B930B541710F0CF9608950197CE
:100280000895FC01918D828D981761F0A28DAE0FBB
:10029000BF2FB11D5D968C91928D9F5F9F73928F42
:1002A00090E008958FEF9FEF0895FC01918D828D6E
:1002B000981731F0828DE80FF11D858D90E008953B
:1002C0008FEF9FEF0895FC01918D228D892F90E093
:1002D000805C9F4F821B91098F739927089588E155
:1002E00091E00E94630121E0892B09F420E0822F34
:1002F000089580E090E0892B29F00E946F01811120
:100300000C9400000895FC01A48DA80FB92FB11D15
:10031000A35ABF4F2C91848D90E001968F7399273B
:10032000848FA689B7892C93A089B1898C91837019
:1003300080648C93938D848D981306C00288F38912
:10034000E02D80818F7D80830895EF92FF920F933F
:100350001F93CF93DF93EC0181E0888F9B8D8C8D71
:1003600098131AC0E889F989808185FF15C09FB765
:10037000F894EE89FF896083E889F9898081837028
:10038000806480839FBF81E090E0DF91CF911F91D7
:100390000F91FF90EF900895F62E0B8D10E00F5FF8
:1003A0001F4F0F731127E02E8C8D8E110CC00FB6CE
:1003B00007FCFACFE889F989808185FFF5CFCE0166
:1003C0000E948301F1CFEB8DEC0FFD2FF11DE35A5D
:1003D000FF4FF0829FB7F8940B8FEA89FB898081E9
:1003E0008062CFCFCF93DF93EC01888D8823B9F063
:1003F000AA89BB89E889F9898C9185FD03C0808130
:1004000086FD0DC00FB607FCF7CF8C9185FFF2CFAC
:10041000808185FFEDCFCE010E948301E9CFDF917E
:10042000CF9108951F920F920FB60F9211242F9320
:100430003F938F939F93AF93BF938091B601909119
:10044000B701A091B801B091B9013091B50123E095
:10045000230F2D3758F50196A11DB11D2093B5012D
:100460008093B6019093B701A093B801B093B901FE
:100470008091BA019091BB01A091BC01B091BD01E6
:100480000196A11DB11D8093BA019093BB01A09369
:10049000BC01B093BD01BF91AF919F918F913F91EE
:1004A0002F910F900FBE0F901F90189526E8230FE5
:1004B0000296A11DB11DD2CF1F920F920FB60F92BF
:1004C00011242F933F934F935F936F937F938F9359
:1004D0009F93AF93BF93EF93FF9388E191E00E94C6
:1004E0008301FF91EF91BF91AF919F918F917F9188
:1004F0006F915F914F913F912F910F900FBE0F9091
:100500001F9018951F920F920FB60F9211242F93E0
:100510008F939F93EF93FF93E0912801F09129012E
:100520008081E0912E01F0912F0182FD1BC090810E
:10053000809131018F5F8F7320913201821741F0DA
:10054000E0913101F0E0E85EFE4F958F809331013C
:10055000FF91EF919F918F912F910F900FBE0F9070
:100560001F9018958081F4CFCF93DF93CDB7DEB77E
:10057000A1970FB6F894DEBF0FBECDBF789484B5B7
:10058000826084BD84B5816084BD85B5826085BD8F
:1005900085B5816085BD80916E00816080936E001D
:1005A000109281008091810082608093810080910F
:1005B00081008160809381008091800081608093C0
:1005C00080008091B10084608093B1008091B00080
:1005D00081608093B00080917A00846080937A007B
:1005E00080917A00826080937A0080917A008160A5
:1005F00080937A0080917A00806880937A001092CC
:10060000C100E7EAF0E02491E3E9F0E08491882377
:1006100099F090E0880F991FFC01E859FF4FA591D0
:10062000B491FC01E458FF4F859194918FB7F894F1
:10063000EC91E22BEC938FBF41EA242E40E0342E64
:10064000F10124915DE8E52E50E0F52EF70184914B
:100650008823C9F090E0880F991FFC01E859FF4FEB
:10066000A591B491FC01E458FF4F459154913FB7D7
:10067000F8949C91822F809598239C93FA01908105
:10068000892380833FBFE0912801F091290182E016
:100690008083E0912401F09125011082E0912601F0
:1006A000F091270180E1808310923001E0912C01CC
:1006B000F0912D0186E08083E0912A01F0912B01D9
:1006C000808180618083E0912A01F0912B018081FB
:1006D00088608083E0912A01F0912B0180818068FD
:1006E0008083E0912A01F0912B0180818F7D8083AE
:1006F0008E01005E1F4F20E0C22E20E0D22EE5EBDF
:10070000F0E08491F101B490F701A490AA2009F4DB
:100710006FC081110E948C00EA2DF0E0EE0FFF1FE8
:10072000EE58FF4FA591B4918C91B82291E080E0F2
:1007300009F490E0A92EB82E19A280E38A0D88A3AF
:10074000F80101900020E9F73197AF01401B510BF0
:10075000B80188E191E00E94050142E050E062E1C9
:1007600071E088E191E00E9405018091160190916D
:1007700017018A159B0561F081E0F1E0AF16B10425
:1007800009F080E00E94B500B0921701A092160116
:100790000E94E0004B015C018FE0482E512C612C3F
:1007A000712C0E94E000681979098A099B09683E4A
:1007B000734081059105A8F321E0421A51086108B0
:1007C000710888EE880E83E0981EA11CB11C4114AC
:1007D00051046104710429F7C114D10409F48FCFC5
:1007E0000E946F01882309F48ACF0E94000087CFFE
:1007F000B12CA12CA1CFE8E1F1E01382128288EEA6
:1008000093E0A0E0B0E084839583A683B78384E07F
:1008100091E09183808385EC90E09587848784ECD8
:1008200090E09787868780EC90E0918B808B81ECBD
:1008300090E0938B828B82EC90E0958B848B86EC9E
:1008400090E0978B868B118E128E138E148E0895E6
:10085000EE0FFF1F0590F491E02D0994F894FFCF5F
:1008600000000000A50105013201F2016301410110
:0608700055010D0A000015
:00000001FF
