:100000000C945D000C9485000C9485000C94850084
:100010000C9485000C9485000C9485000C9485004C
:100020000C9485000C948D030C9485000C94850031
:100030000C9485000C9485000C9485000C9485002C
:100040000C94EB020C9485000C945B030C94350328
:100050000C9485000C9485000C9485000C9485000C
:100060000C9485000C9485000000000024002700FB
:100070002A0000000000250028002B0004040404CE
:100080000404040402020202020203030303030342
:10009000010204081020408001020408102001021F
:1000A00004081020000000080002010000030407FB
:1000B00000000000000000000C0511241FBECFEF5F
:1000C000D8E0DEBFCDBF11E0A0E0B1E0E8E0F0E1B4
:1000D00002C005900D92A232B107D9F721E0A2E249
:1000E000B1E001C01D92AF3EB207E1F710E0CDE5EF
:1000F000D0E004C02197FE010E943905CC35D1071C
:10010000C9F70E9436040C9402080C94000090E099
:10011000FC01EC55FF4F2491FC01E057FF4F349157
:10012000FC01E458FF4FE491EE23C9F0222339F09B
:10013000233001F1A8F4213019F1223029F1F0E047
:10014000EE0FFF1FEE58FF4FA591B4918FB7F894B3
:10015000EC91611126C030953E233C938FBF0895EA
:100160002730A9F02830C9F0243049F78091800069
:100170008F7D03C0809180008F7780938000DFCFD8
:1001800084B58F7784BDDBCF84B58F7DFBCF809125
:10019000B0008F778093B000D2CF8091B0008F7D78
:1001A000F9CF3E2BDACF3FB7F8948091E7019091D9
:1001B000E801A091E901B091EA0126B5A89B05C02C
:1001C0002F3F19F00196A11DB11D3FBFBA2FA92FD6
:1001D000982F8827BC01CD01620F711D811D911DD3
:1001E00042E0660F771F881F991F4A95D1F708953F
:1001F0008F929F92AF92BF92CF92DF92EF92FF9237
:100200004B015C010E94D3006B017C010E94D30072
:100210006C197D098E099F09683E7340810591051F
:10022000A8F321E0821A9108A108B10888EEC80E4F
:1002300083E0D81EE11CF11C81149104A104B104D7
:1002400029F7FF90EF90DF90CF90BF90AF909F90F5
:100250008F900895AF92BF92CF92DF92EF92FF926C
:100260000F931F93CF93DF936C017B018B01040FDE
:10027000151FEB015E01AE18BF08C017D10759F07A
:100280006991D601ED91FC910190F081E02DC601BC
:100290000995892B79F7C501DF91CF911F910F91B6
:1002A000FF90EF90DF90CF90BF90AF900895FC014A
:1002B000538D448D252F30E0842F90E0821B930BCB
:1002C000541710F0CF96089501970895FC01918D71
:1002D000828D981761F0A28DAE0FBF2FB11D5D9674
:1002E0008C91928D9F5F9F73928F90E008958FEF16
:1002F0009FEF0895FC01918D828D981731F0828DCA
:10030000E80FF11D858D90E008958FEF9FEF089520
:10031000FC01918D228D892F90E0805C9F4F821B84
:1003200091098F739927089581E491E00E948801D3
:1003300021E0892B09F420E0822F089580E090E0ED
:10034000892B29F00E94940181110C9400000895DA
:10035000FC01A48DA80FB92FB11DA35ABF4F2C913A
:10036000848D90E001968F739927848FA689B78931
:100370002C93A089B1898C91837080648C93938D28
:10038000848D981306C00288F389E02D80818F7DCB
:1003900080830895EF92FF920F931F93CF93DF9383
:1003A000EC0181E0888F9B8D8C8D98131AC0E889B1
:1003B000F989808185FF15C09FB7F894EE89FF8980
:1003C0006083E889F98980818370806480839FBF1E
:1003D00081E090E0DF91CF911F910F91FF90EF901E
:1003E0000895F62E0B8D10E00F5F1F4F0F7311272E
:1003F000E02E8C8D8E110CC00FB607FCFACFE88969
:10040000F989808185FFF5CFCE010E94A801F1CF47
:10041000EB8DEC0FFD2FF11DE35AFF4FF0829FB7DC
:10042000F8940B8FEA89FB8980818062CFCFCF93CC
:10043000DF93EC01888D8823B9F0AA89BB89E8890C
:10044000F9898C9185FD03C0808186FD0DC00FB6B2
:1004500007FCF7CF8C9185FFF2CF808185FFEDCF30
:10046000CE010E94A801E9CFDF91CF910895DC0170
:100470001496EC918E2F90E0FC01EE0FFF1FE80F19
:10048000F91FEB5DFE4F80818F7D80830895CF93B0
:10049000DF93FC01C4818FEF8C0F883098F5072E15
:1004A000000C880B990B0E94E40525E535E545E035
:1004B00051E40E94700620E030E84BE354E40E94CF
:1004C00040050E94AC056136F9E07F0714F060E654
:1004D00079E0603981E0780714F460E971E06850F0
:1004E00071099B01220F232F221F330BD0E0FE0145
:1004F000EE0FFF1FEC0FFD1FEB5DFE4F2183660F1C
:1005000060956283DF91CF910895CF93DF93DC01F3
:1005100012964D915C91139780912401811122C014
:10052000E5E2F1E08DE391E03BE027E534832583CC
:1005300033968E179F07D1F78EE380932601109292
:10054000230110922201109270001092B00082E0FC
:100550008093B1001092B20081E087BB809370005D
:100560008093240114968C911497882309F430C049
:100570009A013327F901E057FF4F849124583F4FE8
:10058000F9012491222399F030E0220F331FF90161
:10059000E859FF4FC591D491F901EE58FF4F2591CD
:1005A00034919FB7F894E881E82BE8839FBF1496B5
:1005B000EC918E2F90E0FC01EE0FFF1FE80FF91F6A
:1005C000EB5DFE4F4F718081807E842B8062808343
:1005D000DF91CF9108951F920F920FB60F921124C1
:1005E0002F933F938F939F93AF93BF938091E3019A
:1005F0009091E401A091E501B091E6013091E20112
:1006000023E0230F2D3758F50196A11DB11D20932E
:10061000E2018093E3019093E401A093E501B0939C
:10062000E6018091E7019091E801A091E901B09184
:10063000EA010196A11DB11D8093E7019093E801A5
:10064000A093E901B093EA01BF91AF919F918F917F
:100650003F912F910F900FBE0F901F90189526E895
:10066000230F0296A11DB11DD2CF1F920F920FB67C
:100670000F9211242F933F934F935F936F937F9328
:100680008F939F93AF93BF93EF93FF9381E491E098
:100690000E94A801FF91EF91BF91AF919F918F911F
:1006A0007F916F915F914F913F912F910F900FBE6E
:1006B0000F901F9018951F920F920FB60F92112452
:1006C0002F938F939F93EF93FF93E0915101F091BC
:1006D00052018081E0915701F091580182FD1BC0C9
:1006E000908180915A018F5F8F7320915B018217F7
:1006F00041F0E0915A01F0E0EF5BFE4F958F80935F
:100700005A01FF91EF919F918F912F910F900FBE02
:100710000F901F9018958081F4CF1F920F920FB603
:100720000F9211242F933F934F935F936F937F9377
:100730008F939F93AF93BF93EF93FF938091220189
:100740008F5F80932201E0912301209122018E2F5F
:1007500090E0FC01EE0FFF1FE80FF91FEB5DFE4F6D
:100760008181E091230182131DC08E2F90E0FC0156
:10077000EE0FFF1FE80FF91FEB5DFE4F82818093A4
:10078000B200FF91EF91BF91AF919F918F917F91B7
:100790006F915F914F913F912F910F900FBE0F90EE
:1007A0001F901895209122018E2F90E0FC01EE0FF2
:1007B000FF1FE80FF91FEB5DFE4F8181821708F7DD
:1007C000E09123018E2F90E0FC01EE0FFF1FE80F58
:1007D000F91FEB5DFE4F808185FF10C0E091230182
:1007E0008E2F90E0FC01EE0FFF1FE80FF91FEB5D6D
:1007F000FE4F808160E08F710E948700809123010D
:100800008F5F80932301109222011092B200809199
:100810002301882319F1809123018930F8F4E091B4
:1008200023018E2F90E0FC01EE0FFF1FE80FF91F50
:10083000EB5DFE4F808185FFA4CFE09123018E2FD9
:1008400090E0FC01EE0FFF1FE80FF91FEB5DFE4F7C
:10085000808161E08F710E94870093CF8091230196
:10086000893008F48ECF109223018BCF789484B511
:10087000826084BD84B5816084BD85B5826085BD9C
:1008800085B5816085BD80916E00816080936E002A
:10089000109281008091810082608093810080911C
:1008A00081008160809381008091800081608093CD
:1008B00080008091B10084608093B1008091B0008D
:1008C00081608093B00080917A00846080937A0088
:1008D00080917A00826080937A0080917A008160B2
:1008E00080937A0080917A00806880937A001092D9
:1008F000C100E0915101F091520182E08083E091CA
:100900004D01F0914E011082E0914F01F0915001A4
:100910008FEC808310925901E0915501F0915601BE
:1009200086E08083E0915301F091540180818061E1
:100930008083E0915301F09154018081886080832D
:10094000E0915301F0915401808180688083E091AF
:100950005301F091540180818F7D808385E090E088
:100960000E94DD06FC018CE191E0918380838091FF
:100970004001883008F04EC08F5F8093400184832F
:1009800089E090E093838283F093E101E093E001BA
:100990008AE590E09093DF018093DE01C0E0D0E033
:1009A0008091E0019091E101DC01ED91FC910190D9
:1009B000F081E02D09958091E0019091E101609135
:1009C000DE017091DF01DC01ED91FC910280F38189
:1009D000E02D09956FE070E080E090E00E94F80063
:1009E0008091E0019091E101DC01ED91FC910480A6
:1009F000F581E02D099568EE73E080E090E00E94BB
:100A0000F800209769F20E949401882349F20E941D
:100A10000000C6CF1482B4CFE1E4F1E01382128269
:100A200088EE93E0A0E0B0E084839583A683B7834B
:100A30008AE091E09183808385EC90E095878487BC
:100A400084EC90E09787868780EC90E0918B808B98
:100A500081EC90E0938B828B82EC90E0958B848B81
:100A600086EC90E0978B868B118E128E138E148EEF
:100A70000895EE0FFF1F0590F491E02D0994505852
:100A8000BB27AA270E9457050C9436060E94280609
:100A900038F00E942F0620F039F49F3F19F426F415
:100AA0000C9425060EF4E095E7FB0C941F06E92F45
:100AB0000E94470658F3BA17620773078407950721
:100AC00020F079F4A6F50C9469060EF4E0950B2E4F
:100AD000BA2FA02D0B01B90190010C01CA01A00190
:100AE0001124FF27591B99F0593F50F4503E68F1EB
:100AF0001A16F040A22F232F342F4427585FF3CF2C
:100B0000469537952795A795F0405395C9F77EF4FC
:100B10001F16BA0B620B730B840BBAF09150A1F045
:100B2000FF0FBB1F661F771F881FC2F70EC0BA0FCB
:100B3000621F731F841F48F4879577956795B79553
:100B4000F7959E3F08F0B0CF9395880F08F099274E
:100B5000EE0F9795879508950E94B3056894B1119B
:100B60000C946A0608950E944F0688F09F5798F0EB
:100B7000B92F9927B751B0F0E1F0660F771F881FA2
:100B8000991F1AF0BA95C9F714C0B13091F00E94BC
:100B90006906B1E008950C946906672F782F8827BD
:100BA000B85F39F0B93FCCF3869577956795B395E3
:100BB000D9F73EF490958095709561957F4F8F4F52
:100BC0009F4F0895E89409C097FB3EF49095809557
:100BD000709561957F4F8F4F9F4F9923A9F0F92F03
:100BE00096E9BB279395F695879577956795B79581
:100BF000F111F8CFFAF4BB0F11F460FF1BC06F5F67
:100C00007F4F8F4F9F4F16C0882311F096E911C078
:100C1000772321F09EE8872F762F05C0662371F099
:100C200096E8862F70E060E02AF09A95660F771FAD
:100C3000881FDAF7880F9695879597F9089597F9A1
:100C40009F6780E870E060E008959FEF80EC089572
:100C500000240A941616170618060906089500249B
:100C60000A9412161306140605060895092E039415
:100C7000000C11F4882352F0BB0F40F4BF2B11F489
:100C800060FF04C06F5F7F4F8F4F9F4F089557FDE8
:100C90009058440F551F59F05F3F71F04795880FEA
:100CA00097FB991F61F09F3F79F087950895121681
:100CB00013061406551FF2CF4695F1DF08C016162D
:100CC00017061806991FF1CF8695710561050894DE
:100CD0000895E894BB2766277727CB0197F90895F5
:100CE0000E9483060C9436060E94280638F00E9463
:100CF0002F0620F0952311F00C941F060C94250666
:100D000011240C946A060E94470670F3959FC1F364
:100D1000950F50E0551F629FF001729FBB27F00DA9
:100D2000B11D639FAA27F00DB11DAA1F649F6627FE
:100D3000B00DA11D661F829F2227B00DA11D621F4D
:100D4000739FB00DA11D621F839FA00D611D221F07
:100D5000749F3327A00D611D231F849F600D211DEB
:100D6000822F762F6A2F11249F5750409AF0F1F06E
:100D700088234AF0EE0FFF1FBB1F661F771F881FD7
:100D800091505040A9F79E3F510580F00C941F06EA
:100D90000C946A065F3FE4F3983ED4F3869577950A
:100DA0006795B795F795E7959F5FC1F7FE2B880F7D
:100DB000911D9695879597F908950F931F93CF935B
:100DC000DF938230910510F482E090E0E091ED0134
:100DD000F091EE0130E020E0B0E0A0E0309799F42F
:100DE0002115310509F44AC0281B390B243031057F
:100DF000D8F58A819B816115710589F1FB01938387
:100E00008283FE0111C04081518102811381481704
:100E10005907E0F04817590799F4109761F01296B6
:100E20000C93129713961C933296CF01DF91CF91BA
:100E30001F910F9108950093ED011093EE01F4CFEF
:100E40002115310551F04217530738F0A901DB0194
:100E50009A01BD01DF01F801C1CFEF01F9CF9093F5
:100E6000EE018093ED01CDCFFE01E20FF31F8193E0
:100E700091932250310939832883D7CF2091EB01F8
:100E80003091EC01232B41F42091020130910301B8
:100E90003093EC012093EB0120910001309101018E
:100EA0002115310541F42DB73EB740910401509111
:100EB0000501241B350BE091EB01F091EC01E217E9
:100EC000F307A0F42E1B3F0B2817390778F0AC016D
:100ED0004E5F5F4F2417350748F04E0F5F1F50934A
:100EE000EC014093EB01819391939FCFF0E0E0E020
:100EF0009CCFCF93DF930097E9F0FC0132971382E8
:100F00001282A091ED01B091EE01ED0130E020E000
:100F10001097A1F420813181820F931F2091EB0162
:100F20003091EC012817390709F061C0F093EC010A
:100F3000E093EB01DF91CF910895EA01CE17DF072F
:100F4000E8F54A815B819E0141155105B1F7E90140
:100F5000FB83EA8349915991C40FD51FEC17FD0714
:100F600061F4808191810296840F951FE901998334
:100F70008883828193819B838A83F0E0E0E01296EC
:100F80008D919C9113970097B9F52D913C911197F4
:100F9000CD010296820F931F2091EB013091EC015D
:100FA0002817390739F6309751F51092EE01109253
:100FB000ED01B093EC01A093EB01BCCFD383C283CE
:100FC00040815181840F951FC817D90761F44E5F86
:100FD0005F4F88819981480F591F518340838A81CF
:100FE0009B81938382832115310509F0B0CFF09363
:100FF000EE01E093ED019ECFFD01DC01C0CF138235
:081000001282D7CFF894FFCF54
:101008000000EF01800000000000CA012A0157011A
:101018001702880166017A01000000008502470274
:0210280037028D
:00000001FF
