:100000000C9436000C945E000C945E000C945E0020
:100010000C945E000C945E000C945E000C945E00E8
:100020000C945E000C945E000C945E000C945E00D8
:100030000C945E000C945E000C945E000C945E00C8
:100040000C94D9020C945E000C9449030C94230385
:100050000C945E000C945E000C945E000C945E00A8
:100060000C945E000C945E007B03D90411241FBE27
:10007000CFEFD8E0DEBFCDBF21E0ACE2B1E001C000
:100080001D92AF3DB207E1F711E0A0E0B1E0E4E47A
:10009000FEE002C005900D92AC32B107D9F710E036
:1000A000C5E3D0E004C02197FE010E941405C433CB
:1000B000D107C9F70E94B4030C9415070C940000F3
:1000C0003FB7F8948091300190913101A0913201B5
:1000D000B091330126B5A89B05C02F3F19F00196BA
:1000E000A11DB11D3FBFBA2FA92F982F8827BC0192
:1000F000CD01620F711D811D911D42E0660F771FBA
:10010000881F991F4A95D1F70895AF92BF92CF9259
:10011000DF92EF92FF920F931F93CF93DF936C01C7
:100120007B018B01040F151FEB015E01AE18BF08A8
:10013000C017D10759F06991D601ED91FC9101905A
:10014000F081E02DC6010995892B79F7C501DF9172
:10015000CF911F910F91FF90EF90DF90CF90BF90C4
:10016000AF900895FC01538D448D252F30E0842FEE
:1001700090E0821B930B541710F0CF9608950197CF
:100180000895FC01918D828D981761F0A28DAE0FBC
:10019000BF2FB11D5D968C91928D9F5F9F73928F43
:1001A00090E008958FEF9FEF08952FB7F894809116
:1001B000340190913501A0913601B09137012FBFE4
:1001C0008093400190934101A0934201B093430179
:1001D00088E391E00E94C10097FF26C02FB7F894F2
:1001E0008091340190913501A0913601B091370191
:1001F0002FBF4091400150914101609142017091A7
:100200004301841B950BA60BB70B40913C01509109
:100210003D0160913E0170913F0184179507A6074B
:10022000B707B0F28FEF9FEF0895FC01918D828D9B
:10023000981731F0828DE80FF11D858D90E00895BB
:100240008FEF9FEF0895FC01918D228D892F90E013
:10025000805C9F4F821B91098F739927089588E3D3
:1002600091E00E94230121E0892B09F420E0822FF4
:100270000895FC01A48DA80FB92FB11DA35ABF4F3B
:100280002C91848D90E001968F739927848FA68995
:10029000B7892C93A089B1898C91837080648C93E9
:1002A000938D848D981306C00288F389E02D808198
:1002B0008F7D80830895EF92FF920F931F93CF93CA
:1002C000DF93EC0181E0888F9B8D8C8D98131AC091
:1002D000E889F989808185FF15C09FB7F894EE8978
:1002E000FF896083E889F9898081837080648083D5
:1002F0009FBF81E090E0DF91CF911F910F91FF9020
:10030000EF900895F62E0B8D10E00F5F1F4F0F73C7
:100310001127E02E8C8D8E110CC00FB607FCFACF82
:10032000E889F989808185FFF5CFCE010E943901E6
:10033000F1CFEB8DEC0FFD2FF11DE35AFF4FF08253
:100340009FB7F8940B8FEA89FB8980818062CFCFB9
:10035000CF93DF93EC01888D8823B9F0AA89BB89FC
:10036000E889F9898C9185FD03C0808186FD0DC0E7
:100370000FB607FCF7CF8C9185FFF2CF808185FF08
:10038000EDCFCE010E943901E9CFDF91CF910895E1
:1003900042E050E068E171E088E391E00C94850070
:1003A000FC0180819181009711F00C94B6050895AD
:1003B0000F931F93CF93DF93EC018881998100976E
:1003C00059F02A813B812617370730F081E0DF9111
:1003D000CF911F910F9108958B016F5F7F4F0E9406
:1003E0003F06009759F0998388831B830A832C81E9
:1003F0003D81232B59F7FC011082E8CF80E0E7CF45
:10040000EF92FF920F931F93CF93DF93EC017B0149
:100410008A01BA010E94D80128813981811114C052
:100420002115310519F0C9010E94B60519821882FB
:100430001D821C821B821A82CE01DF91CF911F91F7
:100440000F91FF90EF9008951D830C83B701C901B0
:100450000E940E07F1CFFB0101900020E9F73197D0
:10046000AF01461B570B0C940002CF93DF93EC01B6
:10047000FB018617970749F060817181611571054D
:1004800041F0448155810E940002CE01DF91CF915D
:10049000089588819981009711F00E94B60519820C
:1004A00018821D821C821B821A82EFCF0F931F932A
:1004B000CF93DF93CDB7DEB72C970FB6F894DEBF9E
:1004C0000FBECDBF88E391E00E942301892BD1F3B9
:1004D00018861F821A8619861C861B866AE171E0BF
:1004E000CE0107960E942B020E94D50097FD1EC0E8
:1004F0008A309105D9F089831A820B851C850F5F9C
:100500001F4FB801CE0107960E94D801882361F3DE
:100510002F8138858B859C85BE016F5F7F4F820F51
:10052000931F0E940E071C870B87DECF1A82198249
:100530001C821B821E821D82BE01695F7F4FCE011D
:1005400001960E94350286E090E00E941A058C0117
:10055000FC011182108213821282158214826AE1D8
:1005600071E00E942B02BE016F5F7F4FC8010E94A5
:10057000350210932D0100932C01CE0101960E94AB
:10058000D00181E080932E01CE0107960E94D00118
:100590002C960FB6F894DEBF0FBECDBFDF91CF9182
:1005A0001F910F9108950E942F0181110C94560202
:1005B00008951F920F920FB60F9211242F933F931D
:1005C0008F939F93AF93BF938091340190913501A6
:1005D000A0913601B091370130912F0123E0230F14
:1005E0002D3758F50196A11DB11D20932F01809341
:1005F000340190933501A0933601B0933701809177
:10060000300190913101A0913201B09133010196F6
:10061000A11DB11D8093300190933101A09332014F
:10062000B0933301BF91AF919F918F913F912F91E3
:100630000F900FBE0F901F90189526E8230F02967B
:10064000A11DB11DD2CF1F920F920FB60F92112490
:100650002F933F934F935F936F937F938F939F93CA
:10066000AF93BF93EF93FF9388E391E00E9439012A
:10067000FF91EF91BF91AF919F918F917F916F917A
:100680005F914F913F912F910F900FBE0F901F9050
:1006900018951F920F920FB60F9211242F938F93DC
:1006A0009F93EF93FF93E0914801F091490180817E
:1006B000E0914E01F0914F0182FD1BC0908180912D
:1006C00051018F5F8F7320915201821741F0E091A9
:1006D0005101F0E0E85CFE4F958F80935101FF914E
:1006E000EF919F918F912F910F900FBE0F901F90C0
:1006F00018958081F4CFE8E3F1E01382128288EE4E
:1007000093E0A0E0B0E084839583A683B7838AE07A
:1007100091E09183808385EC90E09587848784ECD9
:1007200090E09787868780EC90E0918B808B81ECBE
:1007300090E0938B828B82EC90E0958B848B86EC9F
:1007400090E0978B868B118E128E138E148EE5EDB2
:10075000F1E01182108213821282158214826AE102
:1007600071E0CF010C942B02CF93DF9300D000D027
:1007700000D0CDB7DEB7789484B5826084BD84B5EF
:10078000816084BD85B5826085BD85B5816085BD8C
:1007900080916E00816080936E0010928100809144
:1007A00081008260809381008091810081608093CC
:1007B0008100809180008160809380008091B100F1
:1007C00084608093B1008091B00081608093B0001C
:1007D00080917A00846080937A0080917A008260B0
:1007E00080937A0080917A00816080937A00809172
:1007F0007A00806880937A001092C100E0914801ED
:10080000F091490182E08083E0914401F09145013B
:100810001082E0914601F09147018FEC80831092A5
:100820005001E0914C01F0914D0186E08083E09110
:100830004A01F0914B01808180618083E0914A01FF
:10084000F0914B01808188608083E0914A01F091B2
:100850004B01808180688083E0914A01F0914B01D7
:1008600080818F7D808360E071E085ED91E00E9462
:10087000D80150E040E06AE171E085ED91E00E942E
:10088000000210922D0110922C0110922E0146E0D0
:1008900050E06BE171E088E391E00E9485000E94E6
:1008A000C80180912E01882309F47BC000912C019E
:1008B00010912D0110922E0110922D0110922C01F9
:1008C00050E040E06AE171E085ED91E00E940002B5
:1008D0001A8219821C821B821E821D82B801CE01DF
:1008E00001960E9435028D819E81892B51F062E232
:1008F00071E089819A810E940507FF24F394892B76
:1009000009F0F12CCE0101960E94D001FF2009F4DC
:100910003FC00E9460004B015C0184EFC82EDD24C3
:10092000D394E12CF12C0E946000681979098A099E
:100930009B09683E734081059105A8F321E0C21A26
:10094000D108E108F10888EE880E83E0981EA11C0A
:10095000B11CC114D104E104F10429F71A821982EF
:100960001C821B821E821D8267E271E0CE0101960D
:100970000E942B024D815E8169817A8188E391E03A
:100980000E9485000E94C801CE0101960E94D001FC
:100990000115110531F0C8010E94D001C8010E9463
:1009A000B6050E942F01882309F47BCF0E945602CE
:1009B00078CF85ED91E00C94D0012F923F924F9229
:1009C0005F926F927F928F929F92AF92BF92CF92DF
:1009D000DF92EF92FF920F931F93CF93DF93CDB7E8
:1009E000DEB7CA1BDB0B0FB6F894DEBF0FBECDBF60
:1009F00009942A88398848885F846E847D848C8431
:100A00009B84AA84B984C884DF80EE80FD800C8139
:100A10001B81AA81B981CE0FD11D0FB6F894DEBF1C
:100A20000FBECDBFED010895EE0FFF1F0590F491AD
:100A3000E02D09940F931F93CF93DF93823091059C
:100A400010F482E090E0E091DD01F091DE0130E011
:100A500020E0B0E0A0E0309799F42115310509F4C9
:100A60004AC0281B390B24303105D8F58A819B8177
:100A70006115710589F1FB0193838283FE0111C029
:100A8000408151810281138148175907E0F04817CE
:100A9000590799F4109761F012960C9312971396D8
:100AA0001C933296CF01DF91CF911F910F91089542
:100AB0000093DD011093DE01F4CF2115310551F0D3
:100AC0004217530738F0A901DB019A01BD01DF018C
:100AD000F801C1CFEF01F9CF9093DE018093DD01E2
:100AE000CDCFFE01E20FF31F819391932250310984
:100AF00039832883D7CF2091DB013091DC01232B70
:100B000041F420910201309103013093DC012093E4
:100B1000DB0120910001309101012115310541F4E3
:100B20002DB73EB74091040150910501241B350BB0
:100B3000E091DB01F091DC01E217F307A0F42E1B3A
:100B40003F0B2817390778F0AC014E5F5F4F241731
:100B5000350748F04E0F5F1F5093DC014093DB01D7
:100B6000819391939FCFF0E0E0E09CCFCF93DF9310
:100B70000097E9F0FC01329713821282A091DD0107
:100B8000B091DE01ED0130E020E01097A1F420816A
:100B90003181820F931F2091DB013091DC012817F6
:100BA000390709F061C0F093DC01E093DB01DF91CC
:100BB000CF910895EA01CE17DF07E8F54A815B81FE
:100BC0009E0141155105B1F7E901FB83EA83499183
:100BD0005991C40FD51FEC17FD0761F480819181F5
:100BE0000296840F951FE9019983888382819381FE
:100BF0009B838A83F0E0E0E012968D919C9113979D
:100C00000097B9F52D913C911197CD010296820F75
:100C1000931F2091DB013091DC012817390739F649
:100C2000309751F51092DE011092DD01B093DC0196
:100C3000A093DB01BCCFD383C28340815181840F59
:100C4000951FC817D90761F44E5F5F4F888199815E
:100C5000480F591F518340838A819B8193838283EC
:100C60002115310509F0B0CFF093DE01E093DD01ED
:100C70009ECFFD01DC01C0CF13821282D7CFB0E03E
:100C8000A0E0E5E4F6E00C94DF048C01009751F459
:100C9000CB010E941A058C01C801CDB7DEB7E0E197
:100CA0000C94FB04FC01E60FF71F9C012250310954
:100CB000E217F30708F49DC0D901CD91DC9111979B
:100CC000C617D70798F0C530D10530F3CE01049789
:100CD0008617970708F3C61BD70B2297C193D193AA
:100CE0006D937C93CF010E94B605D6CF5B01AC1A01
:100CF000BD0A4C018C0E9D1EA091DD01B091DE015C
:100D0000512C412CF12CE12C109731F58091DB0115
:100D10009091DC018815990509F05CC046165706CC
:100D200008F058C08091000190910101009741F4B2
:100D30008DB79EB74091040150910501841B950B1E
:100D4000E817F90708F055C0F093DC01E093DB01E8
:100D5000F90171836083A0CF8D919C9111971296B8
:100D60006C90129713967C901397A815B90559F5B6
:100D70006C0142E0C40ED11CCA14DB0420F1AC01AA
:100D80004A195B09DA011296159780F06282738224
:100D900051834083D9016D937C93E114F10471F088
:100DA000D7011396FC93EE93129776CF22968C0F71
:100DB0009D1FF90191838083F301EFCFF093DE0152
:100DC000E093DD0169CF4816590608F42C017D0136
:100DD000D3019ACFCB010E941A057C01009749F0FC
:100DE000AE01B8010E94FC06C8010E94B605870149
:100DF00053CF10E000E050CFFB01DC0102C00190B6
:100E00000D9241505040D8F70895FB01DC018D91BF
:100E1000019080190110D9F3990B0895FB01DC01B1
:100E200001900D920020E1F7089510E0C5E3D0E0B5
:100E300004C0FE010E9414052196C633D107C9F7EC
:040E4000F894FFCF54
:100E44000000DF018000000000005B018500B200AB
:100E5400A8012301C10015010D0A00494E495A4950
:0C0E64004F0070696E6700706F6E6700D1
:00000001FF
