:100000000C9435000C945D000C945D000C945D0024
:100010000C945D000C945D000C945D000C945D00EC
:100020000C945D000C945D000C945D000C945D00DC
:100030000C945D000C945D000C945D000C945D00CC
:100040000C94B9010C945D000C9429020C940302E9
:100050000C945D000C945D000C945D000C945D00AC
:100060000C945D000C945D00A40311241FBECFEF1F
:10007000D8E0DEBFCDBF21E0AAE3B1E001C01D9210
:10008000A23EB207E1F711E0A0E0B1E0EAE2F8E059
:1000900002C005900D92AA33B107D9F710E0C5E36D
:1000A000D0E004C02197FE010E940D04C433D107A3
:1000B000C9F70E945B020C9413040C940000AF92E9
:1000C000BF92CF92DF92EF92FF920F931F93CF9345
:1000D000DF936C017B018B01040F151FEB015E01A7
:1000E000AE18BF08C017D10759F06991D601ED913C
:1000F000FC910190F081E02DC6010995892B79F7DB
:10010000C501DF91CF911F910F91FF90EF90DF908C
:10011000CF90BF90AF900895FC01538D448D252F53
:1001200030E0842F90E0821B930B541710F0CF9691
:10013000089501970895FC01918D828D981761F0C3
:10014000A28DAE0FBF2FB11D5D968C91928D9F5FDA
:100150009F73928F90E008958FEF9FEF0895FC01B9
:10016000918D828D981731F0828DE80FF11D858D6C
:1001700090E008958FEF9FEF08952FB7F894809146
:10018000410190914201A0914301B09144012FBFE0
:1001900080934D0190934E01A0934F01B093500175
:1001A00085E491E00E94AF0097FF26C02FB7F89436
:1001B0008091410190914201A0914301B09144018D
:1001C0002FBF40914D0150914E0160914F017091B0
:1001D0005001841B950BA60BB70B40914901509120
:1001E0004A0160914B0170914C0184179507A60755
:1001F000B707B0F28FEF9FEF0895FC01918D228D2C
:10020000892F90E0805C9F4F821B91098F73992703
:10021000089585E491E00E94FD0021E0892B09F416
:1002200020E0822F089580E090E0892B29F00E9441
:10023000090181110C9400000895FC01A48DA80F00
:10024000B92FB11DA35ABF4F2C91848D90E0019618
:100250008F739927848FA689B7892C93A089B18938
:100260008C91837080648C93938D848D981306C0D9
:100270000288F389E02D80818F7D80830895EF923D
:10028000FF920F931F93CF93DF93EC0181E0888F50
:100290009B8D8C8D98131AC0E889F989808185FF20
:1002A00015C09FB7F894EE89FF896083E889F989C2
:1002B00080818370806480839FBF81E090E0DF91C4
:1002C000CF911F910F91FF90EF900895F62E0B8D17
:1002D00010E00F5F1F4F0F731127E02E8C8D8E11D2
:1002E0000CC00FB607FCFACFE889F989808185FF39
:1002F000F5CFCE010E941D01F1CFEB8DEC0FFD2F4C
:10030000F11DE35AFF4FF0829FB7F8940B8FEA89F3
:10031000FB8980818062CFCFCF93DF93EC01888D02
:100320008823B9F0AA89BB89E889F9898C9185FD70
:1003300003C0808186FD0DC00FB607FCF7CF8C91FE
:1003400085FFF2CF808185FFEDCFCE010E941D0198
:10035000E9CFDF91CF910895FC0101900020E9F7EA
:100360003197AF01481B590BBC0185E491E00C9417
:100370005F001F920F920FB60F9211242F933F939D
:100380008F939F93AF93BF938091410190914201CE
:10039000A0914301B09144013091400123E0230F2B
:1003A0002D3758F50196A11DB11D20934001809372
:1003B000410190934201A0934301B0934401809185
:1003C0003C0190913D01A0913E01B0913F01019609
:1003D000A11DB11D80933C0190933D01A0933E016E
:1003E000B0933F01BF91AF919F918F913F912F911A
:1003F0000F900FBE0F901F90189526E8230F0296BE
:10040000A11DB11DD2CF1F920F920FB60F921124D2
:100410002F933F934F935F936F937F938F939F930C
:10042000AF93BF93EF93FF9385E491E00E941D018A
:10043000FF91EF91BF91AF919F918F917F916F91BC
:100440005F914F913F912F910F900FBE0F901F9092
:1004500018951F920F920FB60F9211242F938F931E
:100460009F93EF93FF93E0915501F09156018081A6
:10047000E0915B01F0915C0182FD1BC09081809155
:100480005E018F5F8F7320915F01821741F0E091D1
:100490005E01F0E0EB5BFE4F958F80935E01FF9174
:1004A000EF919F918F912F910F900FBE0F901F9002
:1004B00018958081F4CFCF93DF93CDB7DEB7A197A6
:1004C0000FB6F894DEBF0FBECDBF789484B58260BE
:1004D00084BD84B5816084BD85B5826085BD85B5E8
:1004E000816085BD80916E00816080936E00109266
:1004F00081008091810082608093810080918100E1
:100500008160809381008091800081608093800071
:100510008091B10084608093B1008091B0008160CF
:100520008093B00080917A00846080937A008091FB
:100530007A00826080937A0080917A008160809353
:100540007A0080917A00806880937A001092C100CE
:10055000E0915501F091560182E08083E0915101D4
:10056000F09152011082E0915301F09154018FEC0F
:10057000808310925D01E0915901F0915A0186E06B
:100580008083E0915701F0915801808180618083E0
:10059000E0915701F0915801808188608083E0915B
:1005A0005701F0915801808180688083E091570164
:1005B000F091580180818F7D808382E191E00E94DB
:1005C000AC0187E291E00E94AC018AE0882E912C78
:1005D000A12CB12C00E010E085E491E00E94FD0028
:1005E000181619060CF082C00E94BD00FC0197FD90
:1005F00091C08D32910521F0C0970A9708F082C012
:10060000C12CD12C7601712CE130F105D9F0ED32FD
:10061000F10509F47CC0CF01C0970A9798F4AAE0CD
:10062000B0E0A70196010E94D1036F01FF0FEE0811
:10063000FF08C60ED71EE81EF91E80E3C81AD108AF
:10064000E108F10885E491E00E949B000E94BD0052
:10065000FC01C0970A97C0F2E130F105A9F27720BA
:1006600041F0F094E094D094C094C11CD11CE11CE2
:10067000F11CD0923B01C0923A01CD28B9F18AE237
:1006800091E00E94AC01C0903A01D0903B010D2C4A
:10069000000CEE08FF08F7FE41C06DE285E491E032
:1006A0000E943F0122273327A9012C193D094E0939
:1006B0005F0919A2FE01B1967F01CA01B901A50126
:1006C00094010E94EB03605DF70162937F012115A5
:1006D00031054105510589F7E114F10419F0C7010D
:1006E0000E94AC0187E291E00E94AC010115110566
:1006F00009F472CF0E940901882309F46DCF0E948A
:1007000000006ACF85E491E00E949B006DCF7724C2
:10071000739498CFC12CD12C7601ABCFA701960151
:1007200019A2CE0181967C01CA01B901A5019401EB
:100730000E94EB03605DF70162937F012115310593
:100740004105510589F7C8CFE5E4F1E01382128233
:1007500088EE93E0A0E0B0E084839583A683B7831E
:1007600084E091E09183808385EC90E09587848795
:1007700084EC90E09787868780EC90E0918B808B6B
:1007800081EC90E0938B828B82EC90E0958B848B54
:1007900086EC90E0978B868B118E128E138E148EC2
:1007A00008950E94DC03A59F900DB49F900DA49F17
:1007B000800D911D11240895A29FB001B39FC00127
:1007C000A39F700D811D1124911DB29F700D811D7D
:1007D0001124911D0895A1E21A2EAA1BBB1BFD0135
:1007E0000DC0AA1FBB1FEE1FFF1FA217B307E40710
:1007F000F50720F0A21BB30BE40BF50B661F771F68
:10080000881F991F1A9469F7609570958095909547
:100810009B01AC01BD01CF010895EE0FFF1F0590B4
:0A082000F491E02D0994F894FFCF45
:10082A00000000003F015F008C008C01FD009B006E
:10083A00AF00496E7365726973636920756E206EC5
:10084A00756D65726F3A000D0A0048616920696E1C
:0A085A0073657269746F3A200000A4
:00000001FF
