:100000000C9453000C947B000C947B000C947B00AC
:100010000C947B000C947B000C947B000C947B0074
:100020000C947B000C947B000C947B000C942C02B1
:100030000C947B000C947B000C947B000C947B0054
:100040000C948A010C947B000C94FA010C94D4015A
:100050000C947B000C947B000C947B000C947B0034
:100060000C947B000C947B0000000000250028000D
:100070002B0000000000240027002A0004040404D0
:100080000404040402020202020203030303030342
:10009000010204081020408001020408102001021F
:1000A00004081020830311241FBECFEFD8E0DEBF69
:1000B000CDBF11E0A0E0B1E0EEEFF9E002C00590A5
:1000C0000D92AC31B107D9F721E0ACE1B1E001C04C
:1000D0001D92A93CB207E1F710E0C3E5D0E004C0EF
:1000E0002197FE010E94D203C235D107C9F70E94B1
:1000F0003B020C94FD040C940000AF92BF92CF928F
:10010000DF92EF92FF920F931F93CF93DF936C01D7
:100110007B018B01040F151FEB015E01AE18BF08B8
:10012000C017D10759F06991D601ED91FC9101906A
:10013000F081E02DC6010995892B79F7C501DF9182
:10014000CF911F910F91FF90EF90DF90CF90BF90D4
:10015000AF900895FC01538D448D252F30E0842FFE
:1001600090E0821B930B541710F0CF9608950197DF
:100170000895FC01918D828D981761F0A28DAE0FCC
:10018000BF2FB11D5D968C91928D9F5F9F73928F53
:1001900090E008958FEF9FEF0895FC01918D828D7F
:1001A000981731F0828DE80FF11D858D90E008954C
:1001B0008FEF9FEF0895FC01918D228D892F90E0A4
:1001C000805C9F4F821B91098F73992708958DE161
:1001D00091E00E94DB0021E0892B09F420E0822FCE
:1001E000089580E090E0892B29F00E94E7008111BA
:1001F0000C9400000895FC01A48DA80FB92FB11D27
:10020000A35ABF4F2C91848D90E001968F7399274C
:10021000848FA689B7892C93A089B1898C9183702A
:1002200080648C93938D848D981306C00288F38923
:10023000E02D80818F7D80830895EF92FF920F9350
:100240001F93CF93DF93EC0181E0888F9B8D8C8D82
:1002500098131AC0E889F989808185FF15C09FB776
:10026000F894EE89FF896083E889F9898081837039
:10027000806480839FBF81E090E0DF91CF911F91E8
:100280000F91FF90EF900895F62E0B8D10E00F5F09
:100290001F4F0F731127E02E8C8D8E110CC00FB6DF
:1002A00007FCFACFE889F989808185FFF5CFCE0177
:1002B0000E94FB00F1CFEB8DEC0FFD2FF11DE35AF7
:1002C000FF4FF0829FB7F8940B8FEA89FB898081FA
:1002D0008062CFCFCF93DF93EC01888D8823B9F074
:1002E000AA89BB89E889F9898C9185FD03C0808141
:1002F00086FD0DC00FB607FCF7CF8C9185FFF2CFBE
:10030000808185FFEDCFCE010E94FB00E9CFDF9118
:10031000CF9108951F920F920FB60F9211242F9331
:100320003F938F939F93AF93BF938091C10190911F
:10033000C201A091C301B091C4013091C00123E07A
:10034000230F2D3758F50196A11DB11D2093C00133
:100350008093C1019093C201A093C301B093C401E3
:100360008091BC019091BD01A091BE01B091BF01EF
:100370000196A11DB11D8093BC019093BD01A09376
:10038000BE01B093BF01BF91AF919F918F913F91FB
:100390002F910F900FBE0F901F90189526E8230FF6
:1003A0000296A11DB11DD2CF1F920F920FB60F92D0
:1003B00011242F933F934F935F936F937F938F936A
:1003C0009F93AF93BF93EF93FF938DE191E00E94D2
:1003D000FB00FF91EF91BF91AF919F918F917F9122
:1003E0006F915F914F913F912F910F900FBE0F90A2
:1003F0001F9018951F920F920FB60F9211242F93F2
:100400008F939F93EF93FF93E0912D01F0912E0135
:100410008081E0913301F091340182FD1BC0908115
:10042000809136018F5F8F7320913701821741F0E1
:10043000E0913601F0E0E35EFE4F958F8093360148
:10044000FF91EF919F918F912F910F900FBE0F9081
:100450001F9018958081F4CF1F920F920FB60F92C4
:1004600011248F9381E080931C018F910F900FBE18
:100470000F901F901895CF93DF93CDB7DEB7A1975C
:100480000FB6F894DEBF0FBECDBF789484B58260FE
:1004900084BD84B5816084BD85B5826085BD85B528
:1004A000816085BD80916E00816080936E001092A6
:1004B0008100809181008260809381008091810021
:1004C00081608093810080918000816080938000B2
:1004D0008091B10084608093B1008091B000816010
:1004E0008093B00080917A00846080937A0080913C
:1004F0007A00826080937A0080917A008160809394
:100500007A0080917A00806880937A001092C1000E
:10051000EEE9F0E02491EAE8F0E084918823C9F064
:1005200090E0880F991FFC01EE58FF4F45915491C0
:10053000FC01E859FF4FA591B4919FB7F894FA01D7
:1005400080812095822380838C91E22FE823EC9395
:100550009FBFE0912D01F0912E0182E08083E09118
:100560002901F0912A011082E0912B01F0912C01D8
:100570008FEC808310923501E0913101F0913201CE
:1005800086E08083E0912F01F091300180818061CD
:100590008083E0912F01F091300180818860808319
:1005A000E0912F01F0913001808180688083E0919B
:1005B0002F01F091300180818F7D808381E090E078
:1005C0000E94D80310921C019093BB018093BA0142
:1005D000F894109280001092810010928500109281
:1005E000840080E090E4909389008093880080915B
:1005F0008100886080938100809181008560809374
:10060000810080916F00826080936F00789480E415
:10061000782E9AE0892E912CA12CB12C00E010E0CC
:1006200080911C018823E1F310921C0170927C00E0
:1006300080917A00806480937A0080917A0086FDB0
:10064000FCCFC0907800D09079000D2C000CEE0803
:10065000FF08F7FE42C06DE28DE191E00E941D01AE
:1006600022273327A9012C193D094E095F0919A238
:10067000CE0181967C01CA01B901A50194010E94B5
:10068000B003605DF70162937F01211531054105DB
:10069000510589F7E114F10461F001900020E9F7B8
:1006A0003197AF014E195F09B7018DE191E00E94CA
:1006B0007D0042E050E068E171E08DE191E00E9450
:1006C0007D000115110509F4ABCF0E94E7008823D6
:1006D00009F4A6CF0E940000A3CFA701960119A29A
:1006E000CE0181967C01CA01B901A50194010E9445
:1006F000B003605DF70162937F012115310541056B
:10070000510589F7C7CFEDE1F1E01382128288EE3F
:1007100093E0A0E0B0E084839583A683B7838AE06A
:1007200091E09183808385EC90E09587848784ECC9
:1007300090E09787868780EC90E0918B808B81ECAE
:1007400090E0938B828B82EC90E0958B848B86EC8F
:1007500090E0978B868B118E128E138E148E0895D7
:10076000A1E21A2EAA1BBB1BFD010DC0AA1FBB1FB5
:10077000EE1FFF1FA217B307E407F50720F0A21B27
:10078000B30BE40BF50B661F771F881F991F1A9494
:1007900069F760957095809590959B01AC01BD01BE
:1007A000CF010895EE0FFF1F0590F491E02D0994FD
:1007B0000F931F93CF93DF938230910510F482E063
:1007C00090E0E091C701F091C80130E020E0B0E096
:1007D000A0E0309799F42115310509F44AC0281B8F
:1007E000390B24303105D8F58A819B81611571055B
:1007F00089F1FB0193838283FE0111C04081518105
:100800000281138148175907E0F04817590799F4F6
:10081000109761F012960C93129713961C933296D0
:10082000CF01DF91CF911F910F9108950093C701E0
:100830001093C801F4CF2115310551F04217530729
:1008400038F0A901DB019A01BD01DF01F801C1CF38
:10085000EF01F9CF9093C8018093C701CDCFFE017E
:10086000E20FF31F8193919322503109398328833A
:10087000D7CF2091C5013091C601232B41F420919F
:100880000201309103013093C6012093C5012091EC
:100890000001309101012115310541F42DB73EB71A
:1008A0004091040150910501241B350BE091C501D5
:1008B000F091C601E217F307A0F42E1B3F0B281797
:1008C000390778F0AC014E5F5F4F2417350748F0C9
:1008D0004E0F5F1F5093C6014093C50181939193C2
:1008E0009FCFF0E0E0E09CCFCF93DF930097E9F05B
:1008F000FC01329713821282A091C701B091C80106
:10090000ED0130E020E01097A1F420813181820FC9
:10091000931F2091C5013091C6012817390709F0AE
:1009200061C0F093C601E093C501DF91CF910895B6
:10093000EA01CE17DF07E8F54A815B819E01411588
:100940005105B1F7E901FB83EA8349915991C40F3D
:10095000D51FEC17FD0761F4808191810296840F09
:10096000951FE90199838883828193819B838A8380
:10097000F0E0E0E012968D919C9113970097B9F505
:100980002D913C911197CD010296820F931F2091DA
:10099000C5013091C6012817390739F6309751F54E
:1009A0001092C8011092C701B093C601A093C5016F
:1009B000BCCFD383C28340815181840F951FC81758
:1009C000D90761F44E5F5F4F88819981480F591FA5
:1009D000518340838A819B819383828321153105D2
:1009E00009F0B0CFF093C801E093C7019ECFFD019D
:0E09F000DC01C0CF13821282D7CFF894FFCF64
:1009FE000000C9018000000000001D017D00AA005A
:0C0A0E006A01DB00B900CD000D0A0000F9
:00000001FF
