:100000000C9462000C948A000C948A000C948A0070
:100010000C948A000C948A000C948A000C948A0038
:100020000C948A000C948A000C948A000C948A0028
:100030000C948A000C948A000C948A000C948A0018
:100040000C940B020C948A000C947B020C945502C5
:100050000C948A000C948A000C948A000C948A00F8
:100060000C948A000C948A000000000025002800EF
:100070002B0000000000240027002A0000000000E0
:1000800023002600290004040404040404040202DA
:100090000202020203030303030301020408102007
:1000A0004080010204081020010204081020000012
:1000B0000008000201000003040700000000000027
:1000C0000000DE0311241FBECFEFD8E0DEBFCDBF9E
:1000D00011E0A0E0B1E0E6E2F8E002C005900D9288
:1000E000A036B107D9F722E0A0E6B1E001C01D9229
:1000F000A730B207E1F710E0C2E6D0E004C02197D4
:10010000FE010E940B04C136D107C9F70E94AD025F
:100110000C9411040C9400003FB7F8948091660190
:1001200090916701A0916801B091690126B5A89BE3
:1001300005C02F3F19F00196A11DB11D3FBFBA2F79
:10014000A92F982F8827BC01CD01620F711D811D39
:10015000911D42E0660F771F881F991F4A95D1F7BE
:1001600008958F929F92AF92BF92CF92DF92EF92BB
:10017000FF924B015C010E948C006B017C010E948C
:100180008C006C197D098E099F09683E73408105BA
:100190009105A8F321E0821A9108A108B10888EE20
:1001A000C80E83E0D81EE11CF11C81149104A10447
:1001B000B10429F7FF90EF90DF90CF90BF90AF9000
:1001C0009F908F900895AF92BF92CF92DF92EF925F
:1001D000FF920F931F93CF93DF936C017B018B01F1
:1001E000040F151FEB015E01AE18BF08C017D10741
:1001F00059F06991D601ED91FC910190F081E02DCB
:10020000C6010995892B79F7C501DF91CF911F911F
:100210000F91FF90EF90DF90CF90BF90AF90089537
:10022000FC01538D448D252F30E0842F90E0821BFC
:10023000930B541710F0CF96089501970895FC0181
:10024000918D828D981761F0A28DAE0FBF2FB11DD9
:100250005D968C91928D9F5F9F73928F90E0089531
:100260008FEF9FEF0895FC01918D828D981731F0EB
:10027000828DE80FF11D858D90E008958FEF9FEF3F
:100280000895FC01918D228D892F90E0805C9F4F15
:10029000821B91098F73992708958AE691E00E9445
:1002A000410121E0892B09F420E0822F089580E0AC
:1002B00090E0892B29F00E944D0181110C940000DF
:1002C0000895FC01A48DA80FB92FB11DA35ABF4FEB
:1002D0002C91848D90E001968F739927848FA68945
:1002E000B7892C93A089B1898C91837080648C9399
:1002F000938D848D981306C00288F389E02D808148
:100300008F7D80830895EF92FF920F931F93CF9379
:10031000DF93EC0181E0888F9B8D8C8D98131AC040
:10032000E889F989808185FF15C09FB7F894EE8927
:10033000FF896083E889F989808183708064808384
:100340009FBF81E090E0DF91CF911F910F91FF90CF
:10035000EF900895F62E0B8D10E00F5F1F4F0F7377
:100360001127E02E8C8D8E110CC00FB607FCFACF32
:10037000E889F989808185FFF5CFCE010E9461016E
:10038000F1CFEB8DEC0FFD2FF11DE35AFF4FF08203
:100390009FB7F8940B8FEA89FB8980818062CFCF69
:1003A000CF93DF93EC01888D8823B9F0AA89BB89AC
:1003B000E889F9898C9185FD03C0808186FD0DC097
:1003C0000FB607FCF7CF8C9185FFF2CF808185FFB8
:1003D000EDCFCE010E946101E9CFDF91CF91089569
:1003E000FC0101900020E9F73197AF01481B590B40
:1003F000BC018AE691E00C94E300CF93DF930E9466
:10040000F001EC0182E191E00E94F0018C0F9D1F50
:10041000DF91CF9108951F920F920FB60F92112482
:100420002F933F938F939F93AF93BF9380916201DC
:1004300090916301A0916401B091650130916101D7
:1004400023E0230F2D3758F50196A11DB11D2093F0
:1004500061018093620190936301A0936401B09362
:1004600065018091660190916701A0916801B0914A
:1004700069010196A11DB11D8093660190936701EA
:10048000A0936801B0936901BF91AF919F918F9143
:100490003F912F910F900FBE0F901F90189526E857
:1004A000230F0296A11DB11DD2CF1F920F920FB63E
:1004B0000F9211242F933F934F935F936F937F93EA
:1004C0008F939F93AF93BF93EF93FF938AE691E04F
:1004D0000E946101FF91EF91BF91AF919F918F9128
:1004E0007F916F915F914F913F912F910F900FBE30
:1004F0000F901F9018951F920F920FB60F92112414
:100500002F938F939F93EF93FF93E0917A01F09154
:100510007B018081E0918001F091810182FD1BC00F
:100520009081809183018F5F8F7320918401821766
:1005300041F0E0918301F0E0E659FE4F958F809302
:100540008301FF91EF919F918F912F910F900FBE9B
:100550000F901F9018958081F4CF789484B58260B5
:1005600084BD84B5816084BD85B5826085BD85B557
:10057000816085BD80916E00816080936E001092D5
:100580008100809181008260809381008091810050
:1005900081608093810080918000816080938000E1
:1005A0008091B10084608093B1008091B00081603F
:1005B0008093B00080917A00846080937A0080916B
:1005C0007A00826080937A0080917A0081608093C3
:1005D0007A0080917A00806880937A001092C1003E
:1005E000CCE9D0E0FE01249108E810E0F801849104
:1005F0008823C9F090E0880F991FFC01EE58FF4F47
:10060000A591B491FC01E859FF4F459154913FB732
:10061000F8949C91822F809598239C93FA01908165
:10062000892380833FBFE0917A01F0917B0182E0D2
:100630008083E0917601F09177011082E09178015A
:10064000F09179018FEC808310928201E0917E011C
:10065000F0917F0186E08083E0917C01F0917D0143
:10066000808180618083E0917C01F0917D018081B7
:1006700088608083E0917C01F0917D0180818068B9
:100680008083E0917C01F0917D0180818F7D80836A
:1006900085E191E00E94F0013AE0E32EF12C82E442
:1006A00091E00E94F00168EE73E080E090E00E942B
:1006B000B100F1E0EF1AF10891F78CE291E00E94AD
:1006C000FD0182E391E00E94FD011092600162E36E
:1006D00070E080E090E00E94B10090EBE92E90E0A5
:1006E000F92E20E0C22E20E0D22EF7018491FE01E7
:1006F0009491F8012491222309F45AC0882351F0DF
:10070000833009F43EC098F5813009F440C082304E
:1007100009F441C0E22FF0E0EE0FFF1FE458FF4F55
:10072000A591B4918C91982331E020E009F430E058
:10073000832F922F209160012817190661F021E084
:10074000009709F420E020936001892BA1F184E453
:1007500091E00E94FD01C114D10409F4C6CF0E94AA
:100760004D01882309F4C1CF0E940000BECF87301D
:10077000A9F08830C9F0843069F6809180008F7DBF
:1007800003C0809180008F7780938000C3CF84B5B1
:100790008F7784BDBFCF84B58F7DFBCF8091B000B4
:1007A0008F778093B000B6CF8091B0008F7DF9CF66
:1007B00090E080E0BFCF8EE491E0CBCFEAE6F1E0BD
:1007C0001382128288EE93E0A0E0B0E084839583E8
:1007D000A683B78384E091E09183808385EC90E0E9
:1007E0009587848784EC90E09787868780EC90E0FB
:1007F000918B808B81EC90E0938B828B82EC90E0EC
:10080000958B848B86EC90E0978B868B118E128E65
:10081000138E148E0895EE0FFF1F0590F491E02DB6
:060820000994F894FFCFDB
:10082600000000008301E3001001D00141011F0117
:1008360033010D0A0043616C6962726174696E6707
:100846002073656E736F722E2E2E200020646F6EDD
:1008560065005049522053454E534F522052454150
:1008660044592E00646574656374656421006E6F77
:10087600206D6F72652064657465637465642E000F
:00000001FF
