:100000000C9462000C948A000C948A000C948A0070
:100010000C948A000C948A000C948A000C948A0038
:100020000C948A000C948A000C948A000C948A0028
:100030000C948A000C948A000C948A000C948A0018
:100040000C940B020C948A000C947B020C945502C5
:100050000C948A000C948A000C948A000C948A00F8
:100060000C948A000C948A000000000025002800EF
:100070002B0000000000240027002A0000000000E0
:1000800023002600290004040404040404040202DA
:100090000202020203030303030301020408102007
:1000A0004080010204081020010204081020000012
:1000B0000008000201000003040700000000000027
:1000C0000000BE0311241FBECFEFD8E0DEBFCDBFBE
:1000D00011E0A0E0B1E0E6EEF7E002C005900D927D
:1000E000AE34B107D9F721E0AEE4B1E001C01D9212
:1000F000A43FB207E1F710E0C2E6D0E004C02197C8
:10010000FE010E94EB03C136D107C9F70E94AD0280
:100110000C94F1030C9400003FB7F89480915301C4
:1001200090915401A0915501B091560126B5A89B1C
:1001300005C02F3F19F00196A11DB11D3FBFBA2F79
:10014000A92F982F8827BC01CD01620F711D811D39
:10015000911D42E0660F771F881F991F4A95D1F7BE
:1001600008958F929F92AF92BF92CF92DF92EF92BB
:10017000FF924B015C010E948C006B017C010E948C
:100180008C006C197D098E099F09683E73408105BA
:100190009105A8F321E0821A9108A108B10888EE20
:1001A000C80E83E0D81EE11CF11C81149104A10447
:1001B000B10429F7FF90EF90DF90CF90BF90AF9000
:1001C0009F908F900895AF92BF92CF92DF92EF925F
:1001D000FF920F931F93CF93DF936C017B018B01F1
:1001E000040F151FEB015E01AE18BF08C017D10741
:1001F00059F06991D601ED91FC910190F081E02DCB
:10020000C6010995892B79F7C501DF91CF911F911F
:100210000F91FF90EF90DF90CF90BF90AF90089537
:10022000FC01538D448D252F30E0842F90E0821BFC
:10023000930B541710F0CF96089501970895FC0181
:10024000918D828D981761F0A28DAE0FBF2FB11DD9
:100250005D968C91928D9F5F9F73928F90E0089531
:100260008FEF9FEF0895FC01918D828D981731F0EB
:10027000828DE80FF11D858D90E008958FEF9FEF3F
:100280000895FC01918D228D892F90E0805C9F4F15
:10029000821B91098F739927089587E591E00E9449
:1002A000410121E0892B09F420E0822F089580E0AC
:1002B00090E0892B29F00E944D0181110C940000DF
:1002C0000895FC01A48DA80FB92FB11DA35ABF4FEB
:1002D0002C91848D90E001968F739927848FA68945
:1002E000B7892C93A089B1898C91837080648C9399
:1002F000938D848D981306C00288F389E02D808148
:100300008F7D80830895EF92FF920F931F93CF9379
:10031000DF93EC0181E0888F9B8D8C8D98131AC040
:10032000E889F989808185FF15C09FB7F894EE8927
:10033000FF896083E889F989808183708064808384
:100340009FBF81E090E0DF91CF911F910F91FF90CF
:10035000EF900895F62E0B8D10E00F5F1F4F0F7377
:100360001127E02E8C8D8E110CC00FB607FCFACF32
:10037000E889F989808185FFF5CFCE010E9461016E
:10038000F1CFEB8DEC0FFD2FF11DE35AFF4FF08203
:100390009FB7F8940B8FEA89FB8980818062CFCF69
:1003A000CF93DF93EC01888D8823B9F0AA89BB89AC
:1003B000E889F9898C9185FD03C0808186FD0DC097
:1003C0000FB607FCF7CF8C9185FFF2CF808185FFB8
:1003D000EDCFCE010E946101E9CFDF91CF91089569
:1003E000FC0101900020E9F73197AF01481B590B40
:1003F000BC0187E591E00C94E300CF93DF930E946A
:10040000F001EC0182E191E00E94F0018C0F9D1F50
:10041000DF91CF9108951F920F920FB60F92112482
:100420002F933F938F939F93AF93BF9380914F01EF
:1004300090915001A0915101B091520130914E0123
:1004400023E0230F2D3758F50196A11DB11D2093F0
:100450004E0180934F0190935001A0935101B093AE
:1004600052018091530190915401A0915501B09196
:1004700056010196A11DB11D809353019093540123
:10048000A0935501B0935601BF91AF919F918F9169
:100490003F912F910F900FBE0F901F90189526E857
:1004A000230F0296A11DB11DD2CF1F920F920FB63E
:1004B0000F9211242F933F934F935F936F937F93EA
:1004C0008F939F93AF93BF93EF93FF9387E591E053
:1004D0000E946101FF91EF91BF91AF919F918F9128
:1004E0007F916F915F914F913F912F910F900FBE30
:1004F0000F901F9018951F920F920FB60F92112414
:100500002F938F939F93EF93FF93E0916701F09167
:1005100068018081E0916D01F0916E0182FD1BC048
:100520009081809170018F5F8F732091710182178C
:1005300041F0E0917001F0E0E95AFE4F958F809311
:100540007001FF91EF919F918F912F910F900FBEAE
:100550000F901F9018958081F4CF789484B58260B5
:1005600084BD84B5816084BD85B5826085BD85B557
:10057000816085BD80916E00816080936E001092D5
:100580008100809181008260809381008091810050
:1005900081608093810080918000816080938000E1
:1005A0008091B10084608093B1008091B00081603F
:1005B0008093B00080917A00846080937A0080916B
:1005C0007A00826080937A0080917A0081608093C3
:1005D0007A0080917A00806880937A001092C1003E
:1005E000CCE9D0E0FE01249108E810E0F801849104
:1005F0008823C9F090E0880F991FFC01EE58FF4F47
:10060000A591B491FC01E859FF4F459154913FB732
:10061000F8949C91822F809598239C93FA01908165
:10062000892380833FBFE0916701F091680182E0F8
:100630008083E0916301F09164011082E091650193
:10064000F09166018FEC808310926F01E0916B0155
:10065000F0916C0186E08083E0916901F0916A017C
:10066000808180618083E0916901F0916A018081DD
:1006700088608083E0916901F0916A0180818068DF
:100680008083E0916901F0916A0180818F7D808390
:1006900085E191E00E94F0013AE0E32EF12C82E442
:1006A00091E00E94F00168EE73E080E090E00E942B
:1006B000B100F1E0EF1AF10891F78CE291E00E94AD
:1006C000FD0182E391E00E94FD0162E370E080E0C1
:1006D00090E00E94B10090EBE92E90E0F92E20E02E
:1006E000C22E20E0D22EF7018491FE019491F801F0
:1006F00024912223C1F0882339F0833041F1E8F4BA
:10070000813059F1823069F1E22FF0E0EE0FFF1FE6
:10071000E458FF4FA591B4918C91982321F084E483
:1007200091E00E94FD01C114D104E9F20E944D0143
:100730008823C9F20E940000D6CF8730A9F0883004
:10074000C9F0843009F7809180008F7D03C08091CB
:1007500080008F7780938000D7CF84B58F7784BD5A
:10076000D3CF84B58F7DFBCF8091B0008F778093FE
:10077000B000CACF8091B0008F7DF9CFE7E5F1E0FE
:100780001382128288EE93E0A0E0B0E08483958328
:10079000A683B78384E091E09183808385EC90E029
:1007A0009587848784EC90E09787868780EC90E03B
:1007B000918B808B81EC90E0938B828B82EC90E02C
:1007C000958B848B86EC90E0978B868B118E128EA6
:1007D000138E148E0895EE0FFF1F0590F491E02DF7
:0607E0000994F894FFCF1C
:1007E600000000008301E3001001D00141011F0158
:1007F60033010D0A0043616C6962726174696E6748
:100806002073656E736F722E2E2E200020646F6E1D
:1008160065005049522053454E534F522052454190
:0E08260044592E006465746563746564210096
:00000001FF
