:100000000C945D000C9485000C9485000C94850084
:100010000C9485000C9485000C9485000C9485004C
:100020000C9485000C9485000C9485000C9485003C
:100030000C9485000C9485000C9485000C9485002C
:100040000C9407020C9485000C9477020C945102D6
:100050000C9485000C9485000C9485000C9485000C
:100060000C9485000C94850000000008000201003B
:100070000003040700000000000000000000000072
:10008000250028002B0000000000240027002A0083
:10009000040404040404040402020202020203032E
:1000A0000303030301020408102040800102040836
:1000B0001020010204081020A90211241FBECFEF56
:1000C000D8E0DEBFCDBF11E0A0E0B1E0E6E8F7E0A8
:1000D00002C005900D92AA32B107D9F721E0AAE239
:1000E000B1E001C01D92A43DB207E1F710E0CDE5FB
:1000F000D0E004C02197FE010E94BB03CC35D1079C
:10010000C9F70E9413030C94C1030C94000090E003
:10011000FC01E859FF4F2491FC01EC55FF4F34914D
:10012000FC01E057FF4FE491EE23C9F0222339F0A0
:10013000233001F1A8F4213019F1223029F1F0E047
:10014000EE0FFF1FE458FF4FA591B4918FB7F894BD
:10015000EC91611126C030953E233C938FBF0895EA
:100160002730A9F02830C9F0243049F78091800069
:100170008F7D03C0809180008F7780938000DFCFD8
:1001800084B58F7784BDDBCF84B58F7DFBCF809125
:10019000B0008F778093B000D2CF8091B0008F7D78
:1001A000F9CF3E2BDACFAF92BF92CF92DF92EF9290
:1001B000FF920F931F93CF93DF936C017B018B0111
:1001C000040F151FEB015E01AE18BF08C017D10761
:1001D00059F06991D601ED91FC910190F081E02DEB
:1001E000C6010995892B79F7C501DF91CF911F9140
:1001F0000F91FF90EF90DF90CF90BF90AF90089558
:10020000FC01538D448D252F30E0842F90E0821B1C
:10021000930B541710F0CF96089501970895FC01A1
:10022000918D828D981761F0A28DAE0FBF2FB11DF9
:100230005D968C91928D9F5F9F73928F90E0089551
:100240008FEF9FEF0895FC01918D828D981731F00B
:10025000828DE80FF11D858D90E008958FEF9FEF5F
:100260000895FC01918D228D892F90E0805C9F4F35
:10027000821B91098F739927089583E391E00E946F
:10028000310121E0892B09F420E0822F089580E0DC
:1002900090E0892B29F00E943D0181110C9400000F
:1002A0000895FC01A48DA80FB92FB11DA35ABF4F0B
:1002B0002C91848D90E001968F739927848FA68965
:1002C000B7892C93A089B1898C91837080648C93B9
:1002D000938D848D981306C00288F389E02D808168
:1002E0008F7D80830895EF92FF920F931F93CF939A
:1002F000DF93EC0181E0888F9B8D8C8D98131AC061
:10030000E889F989808185FF15C09FB7F894EE8947
:10031000FF896083E889F9898081837080648083A4
:100320009FBF81E090E0DF91CF911F910F91FF90EF
:10033000EF900895F62E0B8D10E00F5F1F4F0F7397
:100340001127E02E8C8D8E110CC00FB607FCFACF52
:10035000E889F989808185FFF5CFCE010E9451019E
:10036000F1CFEB8DEC0FFD2FF11DE35AFF4FF08223
:100370009FB7F8940B8FEA89FB8980818062CFCF89
:10038000CF93DF93EC01888D8823B9F0AA89BB89CC
:10039000E889F9898C9185FD03C0808186FD0DC0B7
:1003A0000FB607FCF7CF8C9185FFF2CF808185FFD8
:1003B000EDCFCE010E945101E9CFDF91CF91089599
:1003C00060E0FC0182810C94870061E0FC01828185
:1003D0000C948700CF93DF93FC0101900020E9F794
:1003E0003197AF01481B590BBC0183E391E00E9498
:1003F000D300EC0142E050E06AE171E083E391E078
:100400000E94D3008C0F9D1FDF91CF9108951F9202
:100410000F920FB60F9211242F933F938F939F93B8
:10042000AF93BF9380912F0190913001A091310142
:10043000B091320130912E0123E0230F2D3758F572
:100440000196A11DB11D20932E0180932F01909341
:100450003001A0933101B093320180912A01909133
:100460002B01A0912C01B0912D010196A11DB11D70
:1004700080932A0190932B01A0932C01B0932D011E
:10048000BF91AF919F918F913F912F910F900FBE90
:100490000F901F90189526E8230F0296A11DB11DFD
:1004A000D2CF1F920F920FB60F9211242F933F932A
:1004B0004F935F936F937F938F939F93AF93BF936C
:1004C000EF93FF9383E391E00E945101FF91EF913D
:1004D000BF91AF919F918F917F916F915F914F915C
:1004E0003F912F910F900FBE0F901F9018951F9264
:1004F0000F920FB60F9211242F938F939F93EF9328
:10050000FF93E0914301F09144018081E091490122
:10051000F0914A0182FD1BC0908180914C018F5F58
:100520008F7320914D01821741F0E0914C01F0E072
:10053000ED5CFE4F958F80934C01FF91EF919F9161
:100540008F912F910F900FBE0F901F901895808163
:10055000F4CF109236011092350188EE93E0A0E0BE
:10056000B0E08093370190933801A0933901B093A4
:100570003A0184E091E0909334018093330185EC5B
:1005800090E09093400180933F0184EC90E0909341
:1005900042018093410180EC90E09093440180936C
:1005A000430181EC90E0909346018093450182ECF9
:1005B00090E0909348018093470186EC90E09093FF
:1005C0004A018093490110924C0110924D01109202
:1005D0004E0110924F0186E191E09093D1018093FA
:1005E000D0018DE090E09093D3018093D201E1EBB4
:1005F000F0E02491EDE9F0E08491882399F090E017
:10060000880F991FFC01EA57FF4FA591B491FC0197
:10061000E458FF4F859194918FB7F894EC91E22BB9
:10062000EC938FBF0895789484B5826084BD84B5BF
:10063000816084BD85B5826085BD85B5816085BDDD
:1006400080916E00816080936E0010928100809195
:10065000810082608093810080918100816080931D
:100660008100809180008160809380008091B10042
:1006700084608093B1008091B00081608093B0006D
:1006800080917A00846080937A0080917A00826001
:1006900080937A0080917A00816080937A008091C3
:1006A0007A00806880937A001092C10080ED91E01A
:1006B0000E94E001E0914301F091440182E08083D7
:1006C000E0913F01F09140011082E0914101F091F1
:1006D000420180E1808310924B01E0914701F0914B
:1006E000480186E08083E0914501F09146018081D8
:1006F00080618083E0914501F091460180818860AE
:100700008083E0914501F09146018081806880837B
:10071000E0914501F091460180818F7D80838DE1DC
:1007200091E00E94EA01C0E0D0E083E391E00E9402
:100730003101892B71F083E391E00E940F01813335
:1007400089F480ED91E00E94E50183E291E00E944E
:10075000EA01209751F30E943D01882331F30E9462
:100760000000E3CF8033A9F780ED91E00E94E00123
:1007700086E291E0ECCFEE0FFF1F0590F491E02DA3
:060780000994F894FFCF7C
:10078600000000007301D3000001C00131010F0118
:10079600230100000000E501E0010D0A0052454179
:0A07A6004459004F4E004F46460034
:00000001FF
