:100000000C9462000C948A000C948A000C948A0070
:100010000C948A000C948A000C948A000C948A0038
:100020000C948A000C948A000C948A000C94E102CF
:100030000C948A000C948A000C948A000C948A0018
:100040000C943F020C948A000C94AF020C94890229
:100050000C948A000C948A000C948A000C948A00F8
:100060000C948A000C948A000000000023002600F3
:10007000290000000000240027002A0000000000E2
:10008000250028002B0004040404040404040202D4
:100090000202020203030303030301020408102007
:1000A0004080010204081020010204081020000012
:1000B0000008000201000003040700000000000027
:1000C0000000F00211241FBECFEFD8E0DEBFCDBF8D
:1000D00011E0A0E0B1E0E8E8FBE002C005900D927D
:1000E000A633B107D9F721E0A6E3B1E001C01D9224
:1000F000A73EB207E1F710E0C2E6D0E004C02197C6
:10010000FE010E949704C136D107C9F70E941F0360
:100110000C94C2050C940000833081F028F48130E7
:1001200099F08230A9F008958730A9F08830C9F09D
:100130008430B1F4809180008F7D03C08091800075
:100140008F7780938000089584B58F7784BD08955C
:1001500084B58F7DFBCF8091B0008F778093B00006
:1001600008958091B0008F7DF9CF1F93CF93DF93D7
:10017000282F30E0F901E255FF4F8491F901E6564E
:10018000FF4FD491F901EA57FF4FC491CC23A9F056
:10019000162F81110E948C00EC2FF0E0EE0FFF1F54
:1001A000E458FF4FA591B4918FB7F894EC911111D9
:1001B00008C0D095DE23DC938FBFDF91CF911F91D4
:1001C0000895DE2BF8CFAF92BF92CF92DF92EF92DD
:1001D000FF920F931F93CF93DF936C017B018B01F1
:1001E000040F151FEB015E01AE18BF08C017D10741
:1001F00059F06991D601ED91FC910190F081E02DCB
:10020000C6010995892B79F7C501DF91CF911F911F
:100210000F91FF90EF90DF90CF90BF90AF90089537
:10022000FC01538D448D252F30E0842F90E0821BFC
:10023000930B541710F0CF96089501970895FC0181
:10024000918D828D981761F0A28DAE0FBF2FB11DD9
:100250005D968C91928D9F5F9F73928F90E0089531
:100260008FEF9FEF0895FC01918D828D981731F0EB
:10027000828DE80FF11D858D90E008958FEF9FEF3F
:100280000895FC01918D228D892F90E0805C9F4F15
:10029000821B91098F739927089585E491E00E944C
:1002A000410121E0892B09F420E0822F089580E0AC
:1002B00090E0892B29F00E944D0181110C940000DF
:1002C0000895FC01A48DA80FB92FB11DA35ABF4FEB
:1002D0002C91848D90E001968F739927848FA68945
:1002E000B7892C93A089B1898C91837080648C9399
:1002F000938D848D981306C00288F389E02D808148
:100300008F7D80830895EF92FF920F931F93CF9379
:10031000DF93EC0181E0888F9B8D8C8D98131AC040
:10032000E889F989808185FF15C09FB7F894EE8927
:10033000FF896083E889F989808183708064808384
:100340009FBF81E090E0DF91CF911F910F91FF90CF
:10035000EF900895F62E0B8D10E00F5F1F4F0F7377
:100360001127E02E8C8D8E110CC00FB607FCFACF32
:10037000E889F989808185FFF5CFCE010E9461016E
:10038000F1CFEB8DEC0FFD2FF11DE35AFF4FF08203
:100390009FB7F8940B8FEA89FB8980818062CFCF69
:1003A000CF93DF93EC01888D8823B9F0AA89BB89AC
:1003B000E889F9898C9185FD03C0808186FD0DC097
:1003C0000FB607FCF7CF8C9185FFF2CF808185FFB8
:1003D000EDCFCE010E946101E9CFDF91CF91089569
:1003E00060E0FC0182810C94B50061E0FC01828137
:1003F0000C94B500CF93DF93FC0122813381332726
:10040000F901E255FF4F8491F901E656FF4FD4916F
:10041000F901EA57FF4FC491CC2379F081110E9472
:100420008C00EC2FF0E0EE0FFF1FE859FF4FA59175
:10043000B491EC91ED2381E009F480E08170DF91CB
:10044000CF910895CF93DF93FC0101900020E9F74D
:100450003197AF01481B590BBC0185E491E00E9424
:10046000E300EC0142E050E066E271E085E491E0F7
:100470000E94E3008C0F9D1FDF91CF9108951F9282
:100480000F920FB60F9211242F933F938F939F9348
:10049000AF93BF938091410190914201A09143019C
:1004A000B09144013091400123E0230F2D3758F5DE
:1004B0000196A11DB11D20934001809341019093AD
:1004C0004201A0934301B093440180913C0190917B
:1004D0003D01A0913E01B0913F010196A11DB11DCA
:1004E00080933C0190933D01A0933E01B0933F0166
:1004F000BF91AF919F918F913F912F910F900FBE20
:100500000F901F90189526E8230F0296A11DB11D8C
:10051000D2CF1F920F920FB60F9211242F933F93B9
:100520004F935F936F937F938F939F93AF93BF93FB
:10053000EF93FF9385E491E00E946101FF91EF91B9
:10054000BF91AF919F918F917F916F915F914F91EB
:100550003F912F910F900FBE0F901F9018951F92F3
:100560000F920FB60F9211242F938F939F93EF93B7
:10057000FF93E0915501F09156018081E0915B017C
:10058000F0915C0182FD1BC0908180915E018F5FC4
:100590008F7320915F01821741F0E0915E01F0E0DE
:1005A000EB5BFE4F958F80935E01FF91EF919F91E2
:1005B0008F912F910F900FBE0F901F9018958081F3
:1005C000F4CF1F920F920FB60F9211248F9381E0F8
:1005D0008093E2018F910F900FBE0F901F9018959E
:1005E000E5E4F1E01382128288EE93E0A0E0B0E04F
:1005F00084839583A683B78388E191E09183808388
:1006000085EC90E09587848784EC90E097878687D7
:1006100080EC90E0918B808B81EC90E0938B828BCF
:1006200082EC90E0958B848B86EC90E0978B868BA8
:10063000118E128E138E148E1092E201089578940A
:1006400084B5826084BD84B5816084BD85B58260D7
:1006500085BD85B5816085BD80916E008160809388
:100660006E001092810080918100826080938100F1
:100670008091810081608093810080918000816001
:10068000809380008091B10084608093B10080915C
:10069000B00081608093B00080917A008460809384
:1006A0007A0080917A00826080937A0080917A004B
:1006B000816080937A0080917A00806880937A00CC
:1006C0001092C100E0915501F091560182E08083C3
:1006D000E0915101F09152011082E0915301F091AB
:1006E00054018FEC808310925D01E0915901F091EB
:1006F0005A0186E08083E0915701F0915801808192
:1007000080618083E0915701F09158018081886079
:100710008083E0915701F091580180818068808347
:10072000E0915701F091580180818F7D808384E0B2
:1007300090E00E949D04DC018AE091E011969C9378
:100740008E938DE090E013969C938E931297E7EA38
:10075000F0E09491E3E9F0E02491222399F030E075
:10076000220F331FF901EE58FF4FC591D491F901C3
:10077000E458FF4F259134918FB7F894E881E92B25
:10078000E8838FBFB0933701A093360184E090E0F7
:100790000E949D04DC0182E191E011969C938E936E
:1007A00082E090E013969C938E931297ECE9F0E030
:1007B0009491E8E8F0E024912223C9F030E0220F80
:1007C000331FF901EE58FF4F45915491F901E45858
:1007D000FF4FC591D4912FB7F894FA01808190957D
:1007E000892380838881E92FE823E8832FBFB09392
:1007F0003901A093380181E090E090933B01809310
:100800003A0189E291E00E942202F894109280005D
:1008100010928100109285001092840083E393E08F
:1008200090938900809388008091810088608093F4
:1008300081008091810085608093810080916F00AC
:10084000826080936F007894C0E0D0E002E010E016
:1008500083E0E82EF12CCC24C394D12C8091E201CA
:100860008823E1F31092E20180913A0190913B01DB
:100870008130910581F0A8F182309105F1F0039764
:1008800009F441C0209751F30E944D01882331F3B0
:100890000E940000E3CF8091380190913901DC0182
:1008A000ED91FC910190F081E02D0995882351F3A1
:1008B00010933B0100933A01E5CF8091360190916E
:1008C0003701DC01ED91FC910190F081E02D09955B
:1008D0008FE291E00E94220210923B0110923A01B5
:1008E000D1CF8091380190913901DC01ED91FC91DB
:1008F0000190F081E02D09958111C4CFF0923B0168
:10090000E0923A01BFCF8091360190913701DC012E
:10091000ED91FC910280F381E02D099582E391E055
:100920000E942202D0923B01C0923A01ABCFEE0F5F
:10093000FF1F0590F491E02D09940F931F93CF931F
:10094000DF938230910510F482E090E0E091E501C0
:10095000F091E60130E020E0B0E0A0E0309799F4BB
:100960002115310509F44AC0281B390B2430310503
:10097000D8F58A819B816115710589F1FB0193830B
:100980008283FE0111C04081518102811381481789
:100990005907E0F04817590799F4109761F012963B
:1009A0000C93129713961C933296CF01DF91CF913F
:1009B0001F910F9108950093E5011093E601F4CF84
:1009C0002115310551F04217530738F0A901DB0119
:1009D0009A01BD01DF01F801C1CFEF01F9CF90937A
:1009E000E6018093E501CDCFFE01E20FF31F819375
:1009F00091932250310939832883D7CF2091E30185
:100A00003091E401232B41F4209102013091030144
:100A10003093E4012093E301209100013091010122
:100A20002115310541F42DB73EB740910401509195
:100A30000501241B350BE091E301F091E401E2177D
:100A4000F307A0F42E1B3F0B2817390778F0AC01F1
:100A50004E5F5F4F2417350748F04E0F5F1F5093CE
:100A6000E4014093E301819391939FCFF0E0E0E0B4
:100A70009CCFCF93DF930097E9F0FC01329713826C
:100A80001282A091E501B091E601ED0130E020E095
:100A90001097A1F420813181820F931F2091E301EF
:100AA0003091E4012817390709F061C0F093E4019F
:100AB000E093E301DF91CF910895EA01CE17DF07BC
:100AC000E8F54A815B819E0141155105B1F7E901C5
:100AD000FB83EA8349915991C40FD51FEC17FD0799
:100AE00061F4808191810296840F951FE9019983B9
:100AF0008883828193819B838A83F0E0E0E0129671
:100B00008D919C9113970097B9F52D913C91119778
:100B1000CD010296820F931F2091E3013091E401F1
:100B20002817390739F6309751F51092E6011092DF
:100B3000E501B093E401A093E301BCCFD383C2836A
:100B400040815181840F951FC817D90761F44E5F0A
:100B50005F4F88819981480F591F518340838A8153
:100B60009B81938382832115310509F0B0CFF093E7
:100B7000E601E093E5019ECFFD01DC01C0CF1382C9
:080B80001282D7CFF894FFCFD9
:100B88000000E701800000000000F501F00100000E
:100B98000000FA01000000008301E3001001D00109
:100BA80041011F0133010D0A005245414459004FCC
:060BB8004E004F4646000E
:00000001FF
